{"abi":[{"type":"constructor","inputs":[{"name":"accountName","type":"string","internalType":"string"}],"stateMutability":"nonpayable"},{"type":"function","name":"AccountId","inputs":[],"outputs":[{"name":"","type":"uint256","internalType":"uint256"}],"stateMutability":"view"},{"type":"function","name":"Version","inputs":[],"outputs":[{"name":"","type":"uint256","internalType":"uint256"}],"stateMutability":"view"},{"type":"function","name":"approve","inputs":[{"name":"to","type":"address","internalType":"address"},{"name":"tokenId","type":"uint256","internalType":"uint256"}],"outputs":[],"stateMutability":"nonpayable"},{"type":"function","name":"balanceOf","inputs":[{"name":"owner","type":"address","internalType":"address"}],"outputs":[{"name":"","type":"uint256","internalType":"uint256"}],"stateMutability":"view"},{"type":"function","name":"getApproved","inputs":[{"name":"tokenId","type":"uint256","internalType":"uint256"}],"outputs":[{"name":"","type":"address","internalType":"address"}],"stateMutability":"view"},{"type":"function","name":"getThresholds","inputs":[],"outputs":[{"name":"","type":"address[]","internalType":"address[]"},{"name":"","type":"uint256[]","internalType":"uint256[]"}],"stateMutability":"view"},{"type":"function","name":"isApprovedForAll","inputs":[{"name":"owner","type":"address","internalType":"address"},{"name":"operator","type":"address","internalType":"address"}],"outputs":[{"name":"","type":"bool","internalType":"bool"}],"stateMutability":"view"},{"type":"function","name":"name","inputs":[],"outputs":[{"name":"","type":"string","internalType":"string"}],"stateMutability":"view"},{"type":"function","name":"ownerOf","inputs":[{"name":"tokenId","type":"uint256","internalType":"uint256"}],"outputs":[{"name":"","type":"address","internalType":"address"}],"stateMutability":"view"},{"type":"function","name":"recoverAccount","inputs":[],"outputs":[],"stateMutability":"nonpayable"},{"type":"function","name":"safeTransferFrom","inputs":[{"name":"from","type":"address","internalType":"address"},{"name":"to","type":"address","internalType":"address"},{"name":"tokenId","type":"uint256","internalType":"uint256"}],"outputs":[],"stateMutability":"nonpayable"},{"type":"function","name":"safeTransferFrom","inputs":[{"name":"from","type":"address","internalType":"address"},{"name":"to","type":"address","internalType":"address"},{"name":"tokenId","type":"uint256","internalType":"uint256"},{"name":"_data","type":"bytes","internalType":"bytes"}],"outputs":[],"stateMutability":"nonpayable"},{"type":"function","name":"setApprovalForAll","inputs":[{"name":"operator","type":"address","internalType":"address"},{"name":"approved","type":"bool","internalType":"bool"}],"outputs":[],"stateMutability":"nonpayable"},{"type":"function","name":"setThresholds","inputs":[{"name":"newErc20s","type":"address[]","internalType":"address[]"},{"name":"newAmounts","type":"uint256[]","internalType":"uint256[]"}],"outputs":[],"stateMutability":"nonpayable"},{"type":"function","name":"supportsInterface","inputs":[{"name":"interfaceId","type":"bytes4","internalType":"bytes4"}],"outputs":[{"name":"","type":"bool","internalType":"bool"}],"stateMutability":"view"},{"type":"function","name":"symbol","inputs":[],"outputs":[{"name":"","type":"string","internalType":"string"}],"stateMutability":"view"},{"type":"function","name":"tokenURI","inputs":[{"name":"tokenId","type":"uint256","internalType":"uint256"}],"outputs":[{"name":"","type":"string","internalType":"string"}],"stateMutability":"view"},{"type":"function","name":"transferFrom","inputs":[{"name":"from","type":"address","internalType":"address"},{"name":"to","type":"address","internalType":"address"},{"name":"tokenId","type":"uint256","internalType":"uint256"}],"outputs":[],"stateMutability":"nonpayable"},{"type":"function","name":"withdrawBalances","inputs":[{"name":"erc20s","type":"address[]","internalType":"address[]"}],"outputs":[],"stateMutability":"nonpayable"},{"type":"function","name":"withdrawBalancesTo","inputs":[{"name":"erc20s","type":"address[]","internalType":"address[]"},{"name":"destination","type":"address","internalType":"address"}],"outputs":[],"stateMutability":"nonpayable"},{"type":"event","name":"Approval","inputs":[{"name":"owner","type":"address","indexed":true,"internalType":"address"},{"name":"approved","type":"address","indexed":true,"internalType":"address"},{"name":"tokenId","type":"uint256","indexed":true,"internalType":"uint256"}],"anonymous":false},{"type":"event","name":"ApprovalForAll","inputs":[{"name":"owner","type":"address","indexed":true,"internalType":"address"},{"name":"operator","type":"address","indexed":true,"internalType":"address"},{"name":"approved","type":"bool","indexed":false,"internalType":"bool"}],"anonymous":false},{"type":"event","name":"SuccessfulRecovery","inputs":[{"name":"erc20s","type":"address[]","indexed":false,"internalType":"address[]"},{"name":"amounts","type":"uint256[]","indexed":false,"internalType":"uint256[]"}],"anonymous":false},{"type":"event","name":"SuccessfulWithdrawal","inputs":[{"name":"to","type":"address","indexed":false,"internalType":"address"},{"name":"erc20s","type":"address[]","indexed":false,"internalType":"address[]"},{"name":"amounts","type":"uint256[]","indexed":false,"internalType":"uint256[]"}],"anonymous":false},{"type":"event","name":"ThresholdsChanged","inputs":[{"name":"newErc20s","type":"address[]","indexed":false,"internalType":"address[]"},{"name":"newAmounts","type":"uint256[]","indexed":false,"internalType":"uint256[]"}],"anonymous":false},{"type":"event","name":"Transfer","inputs":[{"name":"from","type":"address","indexed":true,"internalType":"address"},{"name":"to","type":"address","indexed":true,"internalType":"address"},{"name":"tokenId","type":"uint256","indexed":true,"internalType":"uint256"}],"anonymous":false},{"type":"event","name":"TryRecover","inputs":[],"anonymous":false}],"bytecode":{"object":"0x60806040523480156200001157600080fd5b50604051620021a2380380620021a28339810160408190526200003491620002fc565b80604051602001620000479190620003b4565b604051602081830303815290604052816040516020016200006991906200040b565b60408051601f1981840301815291905281516200008e9060009060208501906200020d565b508051620000a49060019060208401906200020d565b505050620000ba336001620000c160201b60201c565b506200049d565b6001600160a01b0382166200011d5760405162461bcd60e51b815260206004820181905260248201527f4552433732313a206d696e7420746f20746865207a65726f206164647265737360448201526064015b60405180910390fd5b6000818152600260205260409020546001600160a01b031615620001845760405162461bcd60e51b815260206004820152601c60248201527f4552433732313a20746f6b656e20616c7265616479206d696e74656400000000604482015260640162000114565b6001600160a01b0382166000908152600360205260408120805460019290620001af90849062000439565b909155505060008181526002602052604080822080546001600160a01b0319166001600160a01b03861690811790915590518392907fddf252ad1be2c89b69c2b068fc378daa952ba7f163c4a11628f55a4df523b3ef908290a45050565b8280546200021b9062000460565b90600052602060002090601f0160209004810192826200023f57600085556200028a565b82601f106200025a57805160ff19168380011785556200028a565b828001600101855582156200028a579182015b828111156200028a5782518255916020019190600101906200026d565b50620002989291506200029c565b5090565b5b808211156200029857600081556001016200029d565b634e487b7160e01b600052604160045260246000fd5b60005b83811015620002e6578181015183820152602001620002cc565b83811115620002f6576000848401525b50505050565b6000602082840312156200030f57600080fd5b81516001600160401b03808211156200032757600080fd5b818401915084601f8301126200033c57600080fd5b815181811115620003515762000351620002b3565b604051601f8201601f19908116603f011681019083821181831017156200037c576200037c620002b3565b816040528281528760208487010111156200039657600080fd5b620003a9836020830160208801620002c9565b979650505050505050565b7f616c746865613a2f2f6c69717569642d696e6672617374727563747572652d6181526663636f756e742f60c81b602082015260008251620003fe816027850160208701620002c9565b9190910160270192915050565b632624a09d60e11b8152600082516200042c816004850160208701620002c9565b9190910160040192915050565b600082198211156200045b57634e487b7160e01b600052601160045260246000fd5b500190565b600181811c908216806200047557607f821691505b602082108114156200049757634e487b7160e01b600052602260045260246000fd5b50919050565b611cf580620004ad6000396000f3fe608060405234801561001057600080fd5b506004361061012c5760003560e01c80638b702802116100ad578063bb62860d11610071578063bb62860d146101fa578063bfe9d7571461027a578063c87b56dd14610282578063cb0e095c14610295578063e985e9c5146102a857600080fd5b80638b7028021461022357806395d89b41146102365780639c3977b51461023e578063a22cb46514610254578063b88d4fde1461026757600080fd5b806342842e0e116100f457806342842e0e146101c1578063570fa5bc146101d45780636352211e146101e75780636cf324ef146101fa57806370a082311461021057600080fd5b806301ffc9a71461013157806306fdde0314610159578063081812fc1461016e578063095ea7b31461019957806323b872dd146101ae575b600080fd5b61014461013f366004611485565b6102e4565b60405190151581526020015b60405180910390f35b610161610336565b60405161015091906114fa565b61018161017c36600461150d565b6103c8565b6040516001600160a01b039091168152602001610150565b6101ac6101a736600461153b565b610462565b005b6101ac6101bc366004611567565b610578565b6101ac6101cf366004611567565b6105aa565b6101ac6101e23660046115f4565b6105c5565b6101816101f536600461150d565b6107ab565b610202600181565b604051908152602001610150565b61020261021e366004611660565b610822565b6101ac61023136600461167d565b6108a9565b6101616108ea565b6102466108f9565b6040516101509291906116fa565b6101ac610262366004611768565b6109b6565b6101ac6102753660046117b7565b610a7b565b6101ac610ab3565b61016161029036600461150d565b610bb8565b6101ac6102a3366004611897565b610ca0565b6101446102b63660046118ee565b6001600160a01b03918216600090815260056020908152604080832093909416825291909152205460ff1690565b60006001600160e01b031982166380ac58cd60e01b148061031557506001600160e01b03198216635b5e139f60e01b145b8061033057506301ffc9a760e01b6001600160e01b03198316145b92915050565b6060600080546103459061191c565b80601f01602080910402602001604051908101604052809291908181526020018280546103719061191c565b80156103be5780601f10610393576101008083540402835291602001916103be565b820191906000526020600020905b8154815290600101906020018083116103a157829003601f168201915b5050505050905090565b6000818152600260205260408120546001600160a01b03166104465760405162461bcd60e51b815260206004820152602c60248201527f4552433732313a20617070726f76656420717565727920666f72206e6f6e657860448201526b34b9ba32b73a103a37b5b2b760a11b60648201526084015b60405180910390fd5b506000908152600460205260409020546001600160a01b031690565b600061046d826107ab565b9050806001600160a01b0316836001600160a01b031614156104db5760405162461bcd60e51b815260206004820152602160248201527f4552433732313a20617070726f76616c20746f2063757272656e74206f776e656044820152603960f91b606482015260840161043d565b336001600160a01b03821614806104f757506104f781336102b6565b6105695760405162461bcd60e51b815260206004820152603860248201527f4552433732313a20617070726f76652063616c6c6572206973206e6f74206f7760448201527f6e6572206e6f7220617070726f76656420666f7220616c6c0000000000000000606482015260840161043d565b6105738383610cd0565b505050565b610583335b82610d3e565b61059f5760405162461bcd60e51b815260040161043d90611957565b610573838383610e35565b61057383838360405180602001604052806000815250610a7b565b60016105d03361057d565b15610740578382146106375760405162461bcd60e51b815260206004820152602a60248201527f7468726573686f6c642076616c756573206d75737420686176652074686520736044820152690c2daca40d8cadccee8d60b31b606482015260840161043d565b61064360066000611435565b61064f60076000611435565b60005b848110156106fd57600686868381811061066e5761066e6119a8565b90506020020160208101906106839190611660565b81546001810183556000928352602090922090910180546001600160a01b0319166001600160a01b0390921691909117905560078484838181106106c9576106c96119a8565b83546001810185556000948552602094859020919094029290920135919092015550806106f5816119d4565b915050610652565b507f654ec6a6c41d997f6ceb2748132213f6ee151c84895ef4a08f17b5743754809b858585856040516107339493929190611a2d565b60405180910390a16107a4565b60405162461bcd60e51b815260206004820152603360248201527f4f776e61626c65417070726f7661626c653a2063616c6c6572206973206e6f74604482015272081bdddb995c881b9bdc88185c1c1c9bdd9959606a1b606482015260840161043d565b5050505050565b6000818152600260205260408120546001600160a01b0316806103305760405162461bcd60e51b815260206004820152602960248201527f4552433732313a206f776e657220717565727920666f72206e6f6e657869737460448201526832b73a103a37b5b2b760b91b606482015260840161043d565b60006001600160a01b03821661088d5760405162461bcd60e51b815260206004820152602a60248201527f4552433732313a2062616c616e636520717565727920666f7220746865207a65604482015269726f206164647265737360b01b606482015260840161043d565b506001600160a01b031660009081526003602052604090205490565b6108b5335b6001610d3e565b6108d15760405162461bcd60e51b815260040161043d90611a7f565b60006108dd60016107ab565b9050610573838383610fd5565b6060600180546103459061191c565b606080600660078180548060200260200160405190810160405280929190818152602001828054801561095557602002820191906000526020600020905b81546001600160a01b03168152600190910190602001808311610937575b50505050509150808054806020026020016040519081016040528092919081815260200182805480156109a757602002820191906000526020600020905b815481526020019060010190808311610993575b50505050509050915091509091565b6001600160a01b038216331415610a0f5760405162461bcd60e51b815260206004820152601960248201527f4552433732313a20617070726f766520746f2063616c6c657200000000000000604482015260640161043d565b3360008181526005602090815260408083206001600160a01b03871680855290835292819020805460ff191686151590811790915590519081529192917f17307eab39ab6107e8899845ad3d59bd9653f200f220920489ca2b5937696c31910160405180910390a35050565b610a853383610d3e565b610aa15760405162461bcd60e51b815260040161043d90611957565b610aad84848484611206565b50505050565b6001336040516331a9108f60e11b8152600481018390526001600160a01b0391909116903090636352211e90602401602060405180830381865afa158015610aff573d6000803e3d6000fd5b505050506040513d601f19601f82011682018060405250810190610b239190611aec565b6001600160a01b031614610b8c5760405162461bcd60e51b815260206004820152602a60248201527f4f776e61626c65417070726f7661626c653a2063616c6c6572206973206e6f74604482015269103a34329037bbb732b960b11b606482015260840161043d565b6040517f9dbe82bd7c9a3230967fa6a4082f47590628e191353da33cef87339fbd74934790600090a150565b6000818152600260205260409020546060906001600160a01b0316610c375760405162461bcd60e51b815260206004820152602f60248201527f4552433732314d657461646174613a2055524920717565727920666f72206e6f60448201526e3732bc34b9ba32b73a103a37b5b2b760891b606482015260840161043d565b6000610c4e60408051602081019091526000815290565b90506000815111610c6e5760405180602001604052806000815250610c99565b80610c7884611239565b604051602001610c89929190611b09565b6040516020818303038152906040525b9392505050565b610ca9336108ae565b610cc55760405162461bcd60e51b815260040161043d90611a7f565b610573838383610fd5565b600081815260046020526040902080546001600160a01b0319166001600160a01b0384169081179091558190610d05826107ab565b6001600160a01b03167f8c5be1e5ebec7d5bd14f71427d1e84f3dd0314c0f7b2291e5b200ac8c7c3b92560405160405180910390a45050565b6000818152600260205260408120546001600160a01b0316610db75760405162461bcd60e51b815260206004820152602c60248201527f4552433732313a206f70657261746f7220717565727920666f72206e6f6e657860448201526b34b9ba32b73a103a37b5b2b760a11b606482015260840161043d565b6000610dc2836107ab565b9050806001600160a01b0316846001600160a01b03161480610dfd5750836001600160a01b0316610df2846103c8565b6001600160a01b0316145b80610e2d57506001600160a01b0380821660009081526005602090815260408083209388168352929052205460ff165b949350505050565b826001600160a01b0316610e48826107ab565b6001600160a01b031614610eb05760405162461bcd60e51b815260206004820152602960248201527f4552433732313a207472616e73666572206f6620746f6b656e2074686174206960448201526839903737ba1037bbb760b91b606482015260840161043d565b6001600160a01b038216610f125760405162461bcd60e51b8152602060048201526024808201527f4552433732313a207472616e7366657220746f20746865207a65726f206164646044820152637265737360e01b606482015260840161043d565b610f1d600082610cd0565b6001600160a01b0383166000908152600360205260408120805460019290610f46908490611b38565b90915550506001600160a01b0382166000908152600360205260408120805460019290610f74908490611b4f565b909155505060008181526002602052604080822080546001600160a01b0319166001600160a01b0386811691821790925591518493918716917fddf252ad1be2c89b69c2b068fc378daa952ba7f163c4a11628f55a4df523b3ef91a4505050565b60008267ffffffffffffffff811115610ff057610ff06117a1565b604051908082528060200260200182016040528015611019578160200160208202803683370190505b50905060005b838110156111c257600085858381811061103b5761103b6119a8565b90506020020160208101906110509190611660565b6040516370a0823160e01b81523060048201529091506000906001600160a01b038316906370a0823190602401602060405180830381865afa15801561109a573d6000803e3d6000fd5b505050506040513d601f19601f820116820180604052508101906110be9190611b67565b905080156111ad5760405163a9059cbb60e01b81526001600160a01b038681166004830152602482018390526000919084169063a9059cbb906044016020604051808303816000875af1158015611119573d6000803e3d6000fd5b505050506040513d601f19601f8201168201806040525081019061113d9190611b80565b90508061118c5760405162461bcd60e51b815260206004820152601760248201527f756e7375636365737366756c207769746864726177616c000000000000000000604482015260640161043d565b8185858151811061119f5761119f6119a8565b602002602001018181525050505b505080806111ba906119d4565b91505061101f565b507fd09f7c02747f1be0aa80758e1857fdf675f9cb71ff40e5ef7701758fa1788e30828585846040516111f89493929190611b9d565b60405180910390a150505050565b611211848484610e35565b61121d84848484611337565b610aad5760405162461bcd60e51b815260040161043d90611bdf565b60608161125d5750506040805180820190915260018152600360fc1b602082015290565b8160005b81156112875780611271816119d4565b91506112809050600a83611c47565b9150611261565b60008167ffffffffffffffff8111156112a2576112a26117a1565b6040519080825280601f01601f1916602001820160405280156112cc576020820181803683370190505b5090505b8415610e2d576112e1600183611b38565b91506112ee600a86611c5b565b6112f9906030611b4f565b60f81b81838151811061130e5761130e6119a8565b60200101906001600160f81b031916908160001a905350611330600a86611c47565b94506112d0565b60006001600160a01b0384163b1561142a57604051630a85bd0160e11b81526001600160a01b0385169063150b7a029061137b903390899088908890600401611c6f565b6020604051808303816000875af19250505080156113b6575060408051601f3d908101601f191682019092526113b391810190611ca2565b60015b611410573d8080156113e4576040519150601f19603f3d011682016040523d82523d6000602084013e6113e9565b606091505b5080516114085760405162461bcd60e51b815260040161043d90611bdf565b805181602001fd5b6001600160e01b031916630a85bd0160e11b149050610e2d565b506001949350505050565b50805460008255906000526020600020908101906114539190611456565b50565b5b8082111561146b5760008155600101611457565b5090565b6001600160e01b03198116811461145357600080fd5b60006020828403121561149757600080fd5b8135610c998161146f565b60005b838110156114bd5781810151838201526020016114a5565b83811115610aad5750506000910152565b600081518084526114e68160208601602086016114a2565b601f01601f19169290920160200192915050565b602081526000610c9960208301846114ce565b60006020828403121561151f57600080fd5b5035919050565b6001600160a01b038116811461145357600080fd5b6000806040838503121561154e57600080fd5b823561155981611526565b946020939093013593505050565b60008060006060848603121561157c57600080fd5b833561158781611526565b9250602084013561159781611526565b929592945050506040919091013590565b60008083601f8401126115ba57600080fd5b50813567ffffffffffffffff8111156115d257600080fd5b6020830191508360208260051b85010111156115ed57600080fd5b9250929050565b6000806000806040858703121561160a57600080fd5b843567ffffffffffffffff8082111561162257600080fd5b61162e888389016115a8565b9096509450602087013591508082111561164757600080fd5b50611654878288016115a8565b95989497509550505050565b60006020828403121561167257600080fd5b8135610c9981611526565b6000806020838503121561169057600080fd5b823567ffffffffffffffff8111156116a757600080fd5b6116b3858286016115a8565b90969095509350505050565b600081518084526020808501945080840160005b838110156116ef578151875295820195908201906001016116d3565b509495945050505050565b604080825283519082018190526000906020906060840190828701845b8281101561173c5781516001600160a01b031684529284019290840190600101611717565b5050508381038285015261175081866116bf565b9695505050505050565b801515811461145357600080fd5b6000806040838503121561177b57600080fd5b823561178681611526565b915060208301356117968161175a565b809150509250929050565b634e487b7160e01b600052604160045260246000fd5b600080600080608085870312156117cd57600080fd5b84356117d881611526565b935060208501356117e881611526565b925060408501359150606085013567ffffffffffffffff8082111561180c57600080fd5b818701915087601f83011261182057600080fd5b813581811115611832576118326117a1565b604051601f8201601f19908116603f0116810190838211818310171561185a5761185a6117a1565b816040528281528a602084870101111561187357600080fd5b82602086016020830137600060208483010152809550505050505092959194509250565b6000806000604084860312156118ac57600080fd5b833567ffffffffffffffff8111156118c357600080fd5b6118cf868287016115a8565b90945092505060208401356118e381611526565b809150509250925092565b6000806040838503121561190157600080fd5b823561190c81611526565b9150602083013561179681611526565b600181811c9082168061193057607f821691505b6020821081141561195157634e487b7160e01b600052602260045260246000fd5b50919050565b60208082526031908201527f4552433732313a207472616e736665722063616c6c6572206973206e6f74206f6040820152701ddb995c881b9bdc88185c1c1c9bdd9959607a1b606082015260800190565b634e487b7160e01b600052603260045260246000fd5b634e487b7160e01b600052601160045260246000fd5b60006000198214156119e8576119e86119be565b5060010190565b8183526000602080850194508260005b858110156116ef578135611a1281611526565b6001600160a01b0316875295820195908201906001016119ff565b604081526000611a416040830186886119ef565b82810360208401528381526001600160fb1b03841115611a6057600080fd5b8360051b80866020840137600091016020019081529695505050505050565b60208082526047908201527f63616c6c6572206973206e6f7420746865206f776e6572206f6620746865204160408201527f63636f756e7420746f6b656e20616e64206973206e6f7420617070726f7665646060820152661032b4ba3432b960c91b608082015260a00190565b600060208284031215611afe57600080fd5b8151610c9981611526565b60008351611b1b8184602088016114a2565b835190830190611b2f8183602088016114a2565b01949350505050565b600082821015611b4a57611b4a6119be565b500390565b60008219821115611b6257611b626119be565b500190565b600060208284031215611b7957600080fd5b5051919050565b600060208284031215611b9257600080fd5b8151610c998161175a565b6001600160a01b0385168152606060208201819052600090611bc290830185876119ef565b8281036040840152611bd481856116bf565b979650505050505050565b60208082526032908201527f4552433732313a207472616e7366657220746f206e6f6e20455243373231526560408201527131b2b4bb32b91034b6b83632b6b2b73a32b960711b606082015260800190565b634e487b7160e01b600052601260045260246000fd5b600082611c5657611c56611c31565b500490565b600082611c6a57611c6a611c31565b500690565b6001600160a01b0385811682528416602082015260408101839052608060608201819052600090611750908301846114ce565b600060208284031215611cb457600080fd5b8151610c998161146f56fea2646970667358221220c9deb73751fc75fefc47102b59ef030d312977872e7e0c151c5011e25f54e8ce64736f6c634300080c0033","linkReferences":{}},"methodIdentifiers":{"AccountId()":"6cf324ef","Version()":"bb62860d","approve(address,uint256)":"095ea7b3","balanceOf(address)":"70a08231","getApproved(uint256)":"081812fc","getThresholds()":"9c3977b5","isApprovedForAll(address,address)":"e985e9c5","name()":"06fdde03","ownerOf(uint256)":"6352211e","recoverAccount()":"bfe9d757","safeTransferFrom(address,address,uint256)":"42842e0e","safeTransferFrom(address,address,uint256,bytes)":"b88d4fde","setApprovalForAll(address,bool)":"a22cb465","setThresholds(address[],uint256[])":"570fa5bc","supportsInterface(bytes4)":"01ffc9a7","symbol()":"95d89b41","tokenURI(uint256)":"c87b56dd","transferFrom(address,address,uint256)":"23b872dd","withdrawBalances(address[])":"8b702802","withdrawBalancesTo(address[],address)":"cb0e095c"},"id":1}