{"abi":[{"type":"constructor","inputs":[{"name":"_name","type":"string","internalType":"string"},{"name":"_symbol","type":"string","internalType":"string"},{"name":"_managedNFTs","type":"address[]","internalType":"address[]"},{"name":"_approvedHolders","type":"address[]","internalType":"address[]"},{"name":"_minDistributionPeriod","type":"uint256","internalType":"uint256"},{"name":"_distributableErc20s","type":"address[]","internalType":"address[]"}],"stateMutability":"nonpayable"},{"type":"function","name":"HolderAllowlist","inputs":[{"name":"","type":"address","internalType":"address"}],"outputs":[{"name":"","type":"bool","internalType":"bool"}],"stateMutability":"view"},{"type":"function","name":"LastDistribution","inputs":[],"outputs":[{"name":"","type":"uint256","internalType":"uint256"}],"stateMutability":"view"},{"type":"function","name":"LockedForDistribution","inputs":[],"outputs":[{"name":"","type":"bool","internalType":"bool"}],"stateMutability":"view"},{"type":"function","name":"ManagedNFTs","inputs":[{"name":"","type":"uint256","internalType":"uint256"}],"outputs":[{"name":"","type":"address","internalType":"address"}],"stateMutability":"view"},{"type":"function","name":"MinDistributionPeriod","inputs":[],"outputs":[{"name":"","type":"uint256","internalType":"uint256"}],"stateMutability":"view"},{"type":"function","name":"Version","inputs":[],"outputs":[{"name":"","type":"uint256","internalType":"uint256"}],"stateMutability":"view"},{"type":"function","name":"addManagedNFT","inputs":[{"name":"nftContract","type":"address","internalType":"address"}],"outputs":[],"stateMutability":"nonpayable"},{"type":"function","name":"allowance","inputs":[{"name":"owner","type":"address","internalType":"address"},{"name":"spender","type":"address","internalType":"address"}],"outputs":[{"name":"","type":"uint256","internalType":"uint256"}],"stateMutability":"view"},{"type":"function","name":"approve","inputs":[{"name":"spender","type":"address","internalType":"address"},{"name":"amount","type":"uint256","internalType":"uint256"}],"outputs":[{"name":"","type":"bool","internalType":"bool"}],"stateMutability":"nonpayable"},{"type":"function","name":"approveHolder","inputs":[{"name":"holder","type":"address","internalType":"address"}],"outputs":[],"stateMutability":"nonpayable"},{"type":"function","name":"balanceOf","inputs":[{"name":"account","type":"address","internalType":"address"}],"outputs":[{"name":"","type":"uint256","internalType":"uint256"}],"stateMutability":"view"},{"type":"function","name":"burn","inputs":[{"name":"amount","type":"uint256","internalType":"uint256"}],"outputs":[],"stateMutability":"nonpayable"},{"type":"function","name":"burnAndDistribute","inputs":[{"name":"amount","type":"uint256","internalType":"uint256"}],"outputs":[],"stateMutability":"nonpayable"},{"type":"function","name":"burnFrom","inputs":[{"name":"account","type":"address","internalType":"address"},{"name":"amount","type":"uint256","internalType":"uint256"}],"outputs":[],"stateMutability":"nonpayable"},{"type":"function","name":"burnFromAndDistribute","inputs":[{"name":"account","type":"address","internalType":"address"},{"name":"amount","type":"uint256","internalType":"uint256"}],"outputs":[],"stateMutability":"nonpayable"},{"type":"function","name":"decimals","inputs":[],"outputs":[{"name":"","type":"uint8","internalType":"uint8"}],"stateMutability":"view"},{"type":"function","name":"decreaseAllowance","inputs":[{"name":"spender","type":"address","internalType":"address"},{"name":"subtractedValue","type":"uint256","internalType":"uint256"}],"outputs":[{"name":"","type":"bool","internalType":"bool"}],"stateMutability":"nonpayable"},{"type":"function","name":"disapproveHolder","inputs":[{"name":"holder","type":"address","internalType":"address"}],"outputs":[],"stateMutability":"nonpayable"},{"type":"function","name":"distribute","inputs":[{"name":"numDistributions","type":"uint256","internalType":"uint256"}],"outputs":[],"stateMutability":"nonpayable"},{"type":"function","name":"distributeToAllHolders","inputs":[],"outputs":[],"stateMutability":"nonpayable"},{"type":"function","name":"increaseAllowance","inputs":[{"name":"spender","type":"address","internalType":"address"},{"name":"addedValue","type":"uint256","internalType":"uint256"}],"outputs":[{"name":"","type":"bool","internalType":"bool"}],"stateMutability":"nonpayable"},{"type":"function","name":"isApprovedHolder","inputs":[{"name":"account","type":"address","internalType":"address"}],"outputs":[{"name":"","type":"bool","internalType":"bool"}],"stateMutability":"view"},{"type":"function","name":"mint","inputs":[{"name":"account","type":"address","internalType":"address"},{"name":"amount","type":"uint256","internalType":"uint256"}],"outputs":[],"stateMutability":"nonpayable"},{"type":"function","name":"mintAndDistribute","inputs":[{"name":"account","type":"address","internalType":"address"},{"name":"amount","type":"uint256","internalType":"uint256"}],"outputs":[],"stateMutability":"nonpayable"},{"type":"function","name":"name","inputs":[],"outputs":[{"name":"","type":"string","internalType":"string"}],"stateMutability":"view"},{"type":"function","name":"onERC721Received","inputs":[{"name":"","type":"address","internalType":"address"},{"name":"","type":"address","internalType":"address"},{"name":"","type":"uint256","internalType":"uint256"},{"name":"","type":"bytes","internalType":"bytes"}],"outputs":[{"name":"","type":"bytes4","internalType":"bytes4"}],"stateMutability":"nonpayable"},{"type":"function","name":"owner","inputs":[],"outputs":[{"name":"","type":"address","internalType":"address"}],"stateMutability":"view"},{"type":"function","name":"releaseManagedNFT","inputs":[{"name":"nftContract","type":"address","internalType":"address"},{"name":"to","type":"address","internalType":"address"}],"outputs":[],"stateMutability":"nonpayable"},{"type":"function","name":"renounceOwnership","inputs":[],"outputs":[],"stateMutability":"nonpayable"},{"type":"function","name":"setDistributableERC20s","inputs":[{"name":"_distributableERC20s","type":"address[]","internalType":"address[]"}],"outputs":[],"stateMutability":"nonpayable"},{"type":"function","name":"symbol","inputs":[],"outputs":[{"name":"","type":"string","internalType":"string"}],"stateMutability":"view"},{"type":"function","name":"totalSupply","inputs":[],"outputs":[{"name":"","type":"uint256","internalType":"uint256"}],"stateMutability":"view"},{"type":"function","name":"transfer","inputs":[{"name":"recipient","type":"address","internalType":"address"},{"name":"amount","type":"uint256","internalType":"uint256"}],"outputs":[{"name":"","type":"bool","internalType":"bool"}],"stateMutability":"nonpayable"},{"type":"function","name":"transferFrom","inputs":[{"name":"sender","type":"address","internalType":"address"},{"name":"recipient","type":"address","internalType":"address"},{"name":"amount","type":"uint256","internalType":"uint256"}],"outputs":[{"name":"","type":"bool","internalType":"bool"}],"stateMutability":"nonpayable"},{"type":"function","name":"transferOwnership","inputs":[{"name":"newOwner","type":"address","internalType":"address"}],"outputs":[],"stateMutability":"nonpayable"},{"type":"function","name":"withdrawFromAllManagedNFTs","inputs":[],"outputs":[],"stateMutability":"nonpayable"},{"type":"function","name":"withdrawFromManagedNFTs","inputs":[{"name":"numWithdrawals","type":"uint256","internalType":"uint256"}],"outputs":[],"stateMutability":"nonpayable"},{"type":"event","name":"AddManagedNFT","inputs":[{"name":"nft","type":"address","indexed":false,"internalType":"address"}],"anonymous":false},{"type":"event","name":"Approval","inputs":[{"name":"owner","type":"address","indexed":true,"internalType":"address"},{"name":"spender","type":"address","indexed":true,"internalType":"address"},{"name":"value","type":"uint256","indexed":false,"internalType":"uint256"}],"anonymous":false},{"type":"event","name":"Deployed","inputs":[],"anonymous":false},{"type":"event","name":"Distribution","inputs":[{"name":"recipient","type":"address","indexed":false,"internalType":"address"},{"name":"tokens","type":"address[]","indexed":false,"internalType":"address[]"},{"name":"amounts","type":"uint256[]","indexed":false,"internalType":"uint256[]"}],"anonymous":false},{"type":"event","name":"DistributionFinished","inputs":[],"anonymous":false},{"type":"event","name":"DistributionStarted","inputs":[],"anonymous":false},{"type":"event","name":"OwnershipTransferred","inputs":[{"name":"previousOwner","type":"address","indexed":true,"internalType":"address"},{"name":"newOwner","type":"address","indexed":true,"internalType":"address"}],"anonymous":false},{"type":"event","name":"ReleaseManagedNFT","inputs":[{"name":"nft","type":"address","indexed":false,"internalType":"address"},{"name":"to","type":"address","indexed":false,"internalType":"address"}],"anonymous":false},{"type":"event","name":"Transfer","inputs":[{"name":"from","type":"address","indexed":true,"internalType":"address"},{"name":"to","type":"address","indexed":true,"internalType":"address"},{"name":"value","type":"uint256","indexed":false,"internalType":"uint256"}],"anonymous":false},{"type":"event","name":"Withdrawal","inputs":[{"name":"source","type":"address","indexed":false,"internalType":"address"}],"anonymous":false},{"type":"event","name":"WithdrawalFinished","inputs":[],"anonymous":false},{"type":"event","name":"WithdrawalStarted","inputs":[],"anonymous":false}],"bytecode":{"object":"0x60806040523480156200001157600080fd5b5060405162002fc238038062002fc2833981016040819052620000349162000430565b8551869086906200004d906003906020850190620001b5565b50805162000063906004906020840190620001b5565b505050620000806200007a6200015f60201b60201c565b62000163565b600160065583516200009a90600a90602087019062000244565b5043600c5560005b83518110156200010e576001600b6000868481518110620000c757620000c762000519565b6020908102919091018101516001600160a01b03168252810191909152604001600020805460ff19169115159190911790558062000105816200052f565b915050620000a2565b50600d82905580516200012990600790602084019062000244565b506040517f3fad920548ed9f22deb8333b4cc1e4f9bc36666a1c2aa30ad59a0a3bb9dcbb9290600090a150505050505062000596565b3390565b600580546001600160a01b038381166001600160a01b0319831681179093556040519116919082907f8be0079c531659141344cd1fd0a4f28419497f9722a3daafe3b4186f6b6457e090600090a35050565b828054620001c39062000559565b90600052602060002090601f016020900481019282620001e7576000855562000232565b82601f106200020257805160ff191683800117855562000232565b8280016001018555821562000232579182015b828111156200023257825182559160200191906001019062000215565b50620002409291506200029c565b5090565b82805482825590600052602060002090810192821562000232579160200282015b828111156200023257825182546001600160a01b0319166001600160a01b0390911617825560209092019160019091019062000265565b5b808211156200024057600081556001016200029d565b634e487b7160e01b600052604160045260246000fd5b604051601f8201601f191681016001600160401b0381118282101715620002f457620002f4620002b3565b604052919050565b600082601f8301126200030e57600080fd5b81516001600160401b038111156200032a576200032a620002b3565b602062000340601f8301601f19168201620002c9565b82815285828487010111156200035557600080fd5b60005b838110156200037557858101830151828201840152820162000358565b83811115620003875760008385840101525b5095945050505050565b600082601f830112620003a357600080fd5b815160206001600160401b03821115620003c157620003c1620002b3565b8160051b620003d2828201620002c9565b9283528481018201928281019087851115620003ed57600080fd5b83870192505b84831015620004255782516001600160a01b0381168114620004155760008081fd5b82529183019190830190620003f3565b979650505050505050565b60008060008060008060c087890312156200044a57600080fd5b86516001600160401b03808211156200046257600080fd5b620004708a838b01620002fc565b975060208901519150808211156200048757600080fd5b620004958a838b01620002fc565b96506040890151915080821115620004ac57600080fd5b620004ba8a838b0162000391565b95506060890151915080821115620004d157600080fd5b620004df8a838b0162000391565b94506080890151935060a0890151915080821115620004fd57600080fd5b506200050c89828a0162000391565b9150509295509295509295565b634e487b7160e01b600052603260045260246000fd5b60006000198214156200055257634e487b7160e01b600052601160045260246000fd5b5060010190565b600181811c908216806200056e57607f821691505b602082108114156200059057634e487b7160e01b600052602260045260246000fd5b50919050565b612a1c80620005a66000396000f3fe608060405234801561001057600080fd5b50600436106102275760003560e01c8063683963cc1161013057806395d89b41116100b8578063ca17f1911161007c578063ca17f191146104a3578063dd62ed3e146104c6578063de37b111146104ff578063f2fde38b14610512578063ff1010831461052557600080fd5b806395d89b411461045a578063a34ae58814610462578063a457c2d714610475578063a9059cbb14610488578063bb62860d1461049b57600080fd5b806379cc6790116100ff57806379cc679014610408578063885138df1461041b5780638da5cb5b1461042357806391c05b0b1461043457806395c942871461044757600080fd5b8063683963cc146103b75780636f55d0ee146103ca57806370a08231146103d7578063715018a61461040057600080fd5b806336fb6062116101b357806342966c681161018257806342966c68146103555780634f7fc87b1461036857806360676ff31461039357806360872e371461039b57806361e390cb146103a457600080fd5b806336fb60621461031357806339509351146103265780633e334bfe1461033957806340c10f191461034257600080fd5b806318160ddd116101fa57806318160ddd146102b957806318395d6d146102cb5780631b7333c1146102de57806323b872dd146102f1578063313ce5671461030457600080fd5b806306fdde031461022c578063095ea7b31461024a5780630f945e171461026d578063150b7a0214610282575b600080fd5b610234610538565b60405161024191906122e7565b60405180910390f35b61025d610258366004612351565b6105ca565b6040519015158152602001610241565b61028061027b36600461237d565b6105e0565b005b6102a06102903660046123e1565b630a85bd0160e11b949350505050565b6040516001600160e01b03199091168152602001610241565b6002545b604051908152602001610241565b6102806102d936600461237d565b61067f565b6102806102ec3660046124a5565b610723565b61025d6102ff3660046124be565b610744565b60405160128152602001610241565b6102806103213660046124ff565b6107ee565b61025d610334366004612351565b610a7a565b6102bd600d5481565b610280610350366004612351565b610ab6565b6102806103633660046124a5565b610b1b565b61037b6103763660046124a5565b610b25565b6040516001600160a01b039091168152602001610241565b610280610b4f565b6102bd600c5481565b6102806103b2366004612351565b610b5d565b6102806103c5366004612351565b610baa565b600e5461025d9060ff1681565b6102bd6103e536600461237d565b6001600160a01b031660009081526020819052604090205490565b610280610bc9565b610280610416366004612351565b610bfd565b610280610c83565b6005546001600160a01b031661037b565b6102806104423660046124a5565b610c94565b61028061045536600461237d565b611010565b610234611207565b6102806104703660046124a5565b611216565b61025d610483366004612351565b611465565b61025d610496366004612351565b6114fe565b6102bd600181565b61025d6104b136600461237d565b600b6020526000908152604090205460ff1681565b6102bd6104d43660046124ff565b6001600160a01b03918216600090815260016020908152604080832093909416825291909152205490565b61028061050d36600461255c565b61150b565b61028061052036600461237d565b611548565b61025d61053336600461237d565b6115e0565b606060038054610547906125fb565b80601f0160208091040260200160405190810160405280929190818152602001828054610573906125fb565b80156105c05780601f10610595576101008083540402835291602001916105c0565b820191906000526020600020905b8154815290600101906020018083116105a357829003601f168201915b5050505050905090565b60006105d73384846115fe565b50600192915050565b6005546001600160a01b031633146106135760405162461bcd60e51b815260040161060a90612636565b60405180910390fd5b61061c816115e0565b61065e5760405162461bcd60e51b81526020600482015260136024820152721a1bdb19195c881b9bdd08185c1c1c9bdd9959606a1b604482015260640161060a565b6001600160a01b03166000908152600b60205260409020805460ff19169055565b6005546001600160a01b031633146106a95760405162461bcd60e51b815260040161060a90612636565b6106b2816115e0565b156106ff5760405162461bcd60e51b815260206004820152601760248201527f686f6c64657220616c726561647920617070726f766564000000000000000000604482015260640161060a565b6001600160a01b03166000908152600b60205260409020805460ff19166001179055565b61072b611722565b1561073857610738610c83565b61074181610b1b565b50565b600061075184848461175b565b6001600160a01b0384166000908152600160209081526040808320338452909152902054828110156107d65760405162461bcd60e51b815260206004820152602860248201527f45524332303a207472616e7366657220616d6f756e74206578636565647320616044820152676c6c6f77616e636560c01b606482015260840161060a565b6107e385338584036115fe565b506001949350505050565b6005546001600160a01b031633146108185760405162461bcd60e51b815260040161060a90612636565b6002600654141561083b5760405162461bcd60e51b815260040161060a9061266b565b60026006819055506000829050806001600160a01b03166323b872dd3084846001600160a01b0316636cf324ef6040518163ffffffff1660e01b8152600401602060405180830381865afa158015610897573d6000803e3d6000fd5b505050506040513d601f19601f820116820180604052508101906108bb91906126a2565b6040516001600160e01b031960e086901b1681526001600160a01b0393841660048201529290911660248301526044820152606401600060405180830381600087803b15801561090a57600080fd5b505af115801561091e573d6000803e3d6000fd5b5050505060005b600a54811015610a2c576000600a8281548110610944576109446126bb565b6000918252602090912001546001600160a01b0390811691508516811415610a1957600a8054610976906001906126e7565b81548110610986576109866126bb565b600091825260209091200154600a80546001600160a01b0390921691849081106109b2576109b26126bb565b9060005260206000200160006101000a8154816001600160a01b0302191690836001600160a01b03160217905550600a8054806109f1576109f16126fe565b600082815260209020810160001990810180546001600160a01b031916905501905550610a2c565b5080610a2481612714565b915050610925565b50604080516001600160a01b038086168252841660208201527f34cfb88cfadfa0c5b6fdfd3e4b9e308b1230c1d3345beafa57fe727ffa5c699f910160405180910390a15050600160065550565b3360008181526001602090815260408083206001600160a01b038716845290915281205490916105d7918590610ab190869061272f565b6115fe565b6005546001600160a01b03163314610ae05760405162461bcd60e51b815260040161060a90612636565b60026006541415610b035760405162461bcd60e51b815260040161060a9061266b565b6002600655610b128282611940565b50506001600655565b6107413382611a33565b600a8181548110610b3557600080fd5b6000918252602090912001546001600160a01b0316905081565b600a54610b5b90611216565b565b6005546001600160a01b03163314610b875760405162461bcd60e51b815260040161060a90612636565b610b8f611722565b15610b9c57610b9c610c83565b610ba68282610ab6565b5050565b610bb2611722565b15610bbf57610bbf610c83565b610ba68282610bfd565b6005546001600160a01b03163314610bf35760405162461bcd60e51b815260040161060a90612636565b610b5b6000611b94565b6000610c0983336104d4565b905081811015610c675760405162461bcd60e51b8152602060048201526024808201527f45524332303a206275726e20616d6f756e74206578636565647320616c6c6f77604482015263616e636560e01b606482015260840161060a565b610c7483338484036115fe565b610c7e8383611a33565b505050565b600954801561074157600954610741905b60026006541415610cb75760405162461bcd60e51b815260040161060a9061266b565b600260065580610d155760405162461bcd60e51b8152602060048201526024808201527f6d7573742070726f63657373206174206c6561737420312064697374726962756044820152633a34b7b760e11b606482015260840161060a565b600e5460ff16610d7b57610d27611722565b610d735760405162461bcd60e51b815260206004820152601d60248201527f4d696e446973747269627574696f6e506572696f64206e6f74206d6574000000604482015260640161060a565b610d7b611be6565b6000610d9682600f54610d8e919061272f565b600954611df5565b600f549091505b81811015610fef57600060098281548110610dba57610dba6126bb565b6000918252602090912001546001600160a01b03169050610dda816115e0565b15610fdc5760075460009067ffffffffffffffff811115610dfd57610dfd61239a565b604051908082528060200260200182016040528015610e26578160200160208202803683370190505b50905060005b600754811015610f9d57600060078281548110610e4b57610e4b6126bb565b60009182526020822001546040516370a0823160e01b81526001600160a01b038781166004830152909116925030906370a0823190602401602060405180830381865afa158015610ea0573d6000803e3d6000fd5b505050506040513d601f19601f82011682018060405250810190610ec491906126a2565b60088481548110610ed757610ed76126bb565b9060005260206000200154610eec9190612747565b60405163a9059cbb60e01b81526001600160a01b038781166004830152602482018390529192509083169063a9059cbb906044016020604051808303816000875af1158015610f3f573d6000803e3d6000fd5b505050506040513d601f19601f82011682018060405250810190610f639190612766565b15610f885780848481518110610f7b57610f7b6126bb565b6020026020010181815250505b50508080610f9590612714565b915050610e2c565b507fea1823f879bc0cdf8f0b498e336723ace2adf2f7ea9c0a0257b0ba3e5783a95682600783604051610fd293929190612788565b60405180910390a1505b5080610fe781612714565b915050610d9d565b600f81905560095481141561100657611006611e0d565b5050600160065550565b6005546001600160a01b0316331461103a5760405162461bcd60e51b815260040161060a90612636565b60008190506000816001600160a01b0316636352211e836001600160a01b0316636cf324ef6040518163ffffffff1660e01b8152600401602060405180830381865afa15801561108e573d6000803e3d6000fd5b505050506040513d601f19601f820116820180604052508101906110b291906126a2565b6040518263ffffffff1660e01b81526004016110d091815260200190565b602060405180830381865afa1580156110ed573d6000803e3d6000fd5b505050506040513d601f19601f82011682018060405250810190611111919061281f565b90506001600160a01b03811630146111815760405162461bcd60e51b815260206004820152602d60248201527f7468697320636f6e747261637420646f6573206e6f74206f776e20746865206e60448201526c195dc813585b9859d959139195609a1b606482015260840161060a565b600a80546001810182556000919091527fc65a7bb8d6351c1cf70c95a316cc6a92839c986682d98bc35f958f4883f9d2a80180546001600160a01b0319166001600160a01b0385169081179091556040519081527f28b73e7a76f54ec0fab0aee63b3054e04ea145d8b8c892292f9b7dd9ff9dc04e9060200160405180910390a1505050565b606060048054610547906125fb565b600e5460ff16156112755760405162461bcd60e51b815260206004820152602360248201527f63616e6e6f7420776974686472617720647572696e672064697374726962757460448201526234b7b760e91b606482015260840161060a565b6010546112a6576040517ff0049526741dc9d64ae2e63dde9925a8a345a6d29fe69f2dc341b299493f62ad90600090a15b60006112c1601054836112b9919061272f565b600a54611df5565b6010549091505b81811015611423576000600a82815481106112e5576112e56126bb565b9060005260206000200160009054906101000a90046001600160a01b031690506000816001600160a01b0316639c3977b56040518163ffffffff1660e01b8152600401600060405180830381865afa158015611345573d6000803e3d6000fd5b505050506040513d6000823e601f3d908101601f1916820160405261136d91908101906128a2565b506040516332c3825760e21b81529091506001600160a01b0383169063cb0e095c9061139f9084903090600401612967565b600060405180830381600087803b1580156113b957600080fd5b505af11580156113cd573d6000803e3d6000fd5b50506040516001600160a01b03851681527fe19ed71156e31b3c9e18ac7ad8d1b79f0a0feb3be18d23dae612e52040aada4b9250602001905060405180910390a15050808061141b90612714565b9150506112c8565b6010819055600a54811415610c7e57600060108190556040517f27f9173c8e47488a1236c609f223c541c51bfd78dda423aab8de1794ab0ac71c9190a1505050565b3360009081526001602090815260408083206001600160a01b0386168452909152812054828110156114e75760405162461bcd60e51b815260206004820152602560248201527f45524332303a2064656372656173656420616c6c6f77616e63652062656c6f77604482015264207a65726f60d81b606482015260840161060a565b6114f433858584036115fe565b5060019392505050565b60006105d733848461175b565b6005546001600160a01b031633146115355760405162461bcd60e51b815260040161060a90612636565b8051610ba6906007906020840190612253565b6005546001600160a01b031633146115725760405162461bcd60e51b815260040161060a90612636565b6001600160a01b0381166115d75760405162461bcd60e51b815260206004820152602660248201527f4f776e61626c653a206e6577206f776e657220697320746865207a65726f206160448201526564647265737360d01b606482015260840161060a565b61074181611b94565b6001600160a01b03166000908152600b602052604090205460ff1690565b6001600160a01b0383166116605760405162461bcd60e51b8152602060048201526024808201527f45524332303a20617070726f76652066726f6d20746865207a65726f206164646044820152637265737360e01b606482015260840161060a565b6001600160a01b0382166116c15760405162461bcd60e51b815260206004820152602260248201527f45524332303a20617070726f766520746f20746865207a65726f206164647265604482015261737360f01b606482015260840161060a565b6001600160a01b0383811660008181526001602090815260408083209487168084529482529182902085905590518481527f8c5be1e5ebec7d5bd14f71427d1e84f3dd0314c0f7b2291e5b200ac8c7c3b925910160405180910390a3505050565b600061172d60025490565b15806117395750600954155b156117445750600090565b600d54600c5461175490436126e7565b1015905090565b6001600160a01b0383166117bf5760405162461bcd60e51b815260206004820152602560248201527f45524332303a207472616e736665722066726f6d20746865207a65726f206164604482015264647265737360d81b606482015260840161060a565b6001600160a01b0382166118215760405162461bcd60e51b815260206004820152602360248201527f45524332303a207472616e7366657220746f20746865207a65726f206164647260448201526265737360e81b606482015260840161060a565b61182c838383611eb4565b6001600160a01b038316600090815260208190526040902054818110156118a45760405162461bcd60e51b815260206004820152602660248201527f45524332303a207472616e7366657220616d6f756e7420657863656564732062604482015265616c616e636560d01b606482015260840161060a565b6001600160a01b038085166000908152602081905260408082208585039055918516815290812080548492906118db90849061272f565b92505081905550826001600160a01b0316846001600160a01b03167fddf252ad1be2c89b69c2b068fc378daa952ba7f163c4a11628f55a4df523b3ef8460405161192791815260200190565b60405180910390a361193a84848461206c565b50505050565b6001600160a01b0382166119965760405162461bcd60e51b815260206004820152601f60248201527f45524332303a206d696e7420746f20746865207a65726f206164647265737300604482015260640161060a565b6119a260008383611eb4565b80600260008282546119b4919061272f565b90915550506001600160a01b038216600090815260208190526040812080548392906119e190849061272f565b90915550506040518181526001600160a01b038316906000907fddf252ad1be2c89b69c2b068fc378daa952ba7f163c4a11628f55a4df523b3ef9060200160405180910390a3610ba66000838361206c565b6001600160a01b038216611a935760405162461bcd60e51b815260206004820152602160248201527f45524332303a206275726e2066726f6d20746865207a65726f206164647265736044820152607360f81b606482015260840161060a565b611a9f82600083611eb4565b6001600160a01b03821660009081526020819052604090205481811015611b135760405162461bcd60e51b815260206004820152602260248201527f45524332303a206275726e20616d6f756e7420657863656564732062616c616e604482015261636560f01b606482015260840161060a565b6001600160a01b0383166000908152602081905260408120838303905560028054849290611b429084906126e7565b90915550506040518281526000906001600160a01b038516907fddf252ad1be2c89b69c2b068fc378daa952ba7f163c4a11628f55a4df523b3ef9060200160405180910390a3610c7e8360008461206c565b600580546001600160a01b038381166001600160a01b0319831681179093556040519116919082907f8be0079c531659141344cd1fd0a4f28419497f9722a3daafe3b4186f6b6457e090600090a35050565b600e5460ff1615611c4f5760405162461bcd60e51b815260206004820152602d60248201527f63616e6e6f7420626567696e20646973747269627574696f6e207768656e206160448201526c1b1c9958591e481b1bd8dad959609a1b606482015260840161060a565b600e805460ff1916600117905560085415611c7057611c70600860006122b8565b6000306001600160a01b03166318160ddd6040518163ffffffff1660e01b8152600401602060405180830381865afa158015611cb0573d6000803e3d6000fd5b505050506040513d601f19601f82011682018060405250810190611cd491906126a2565b905060005b600754811015611dc357600060078281548110611cf857611cf86126bb565b6000918252602090912001546040516370a0823160e01b81523060048201526001600160a01b03909116906370a0823190602401602060405180830381865afa158015611d49573d6000803e3d6000fd5b505050506040513d601f19601f82011682018060405250810190611d6d91906126a2565b90506000611d7b84836129c4565b600880546001810182556000919091527ff3f7a9fe364faab93b216da50a3214154f22a0a2b415b23a84c8169e8b636ee3015550819050611dbb81612714565b915050611cd9565b506000600f8190556040517fcaec521e84e0f554a179e69c042f43833410c17af29a4385f244c61e24d3759a9190a150565b6000818310611e045781611e06565b825b9392505050565b600e5460ff16611e6f5760405162461bcd60e51b815260206004820152602760248201527f63616e6e6f7420656e6420646973747269627574696f6e207768656e206e6f74604482015266081b1bd8dad95960ca1b606482015260840161060a565b611e7b600860006122b8565b600e805460ff1916905543600c556040517f1138de6b323edc96da0f54562e39d324138cea036bc9044562f386a7f602b5e190600090a1565b600e5460ff1615611f075760405162461bcd60e51b815260206004820152601860248201527f646973747269627574696f6e20696e2070726f67726573730000000000000000604482015260640161060a565b6001600160a01b03821615611f7b57611f1f826115e0565b611f7b5760405162461bcd60e51b815260206004820152602760248201527f7265636569766572206e6f7420617070726f76656420746f20686f6c6420746860448201526632903a37b5b2b760c91b606482015260840161060a565b6001600160a01b0383161580611f9857506001600160a01b038216155b15611fa557611fa56121ec565b6040516370a0823160e01b81526001600160a01b038316600482015260009030906370a0823190602401602060405180830381865afa158015611fec573d6000803e3d6000fd5b505050506040513d601f19601f8201168201806040525081019061201091906126a2565b151590508061193a57600980546001810182556000919091527f6e1540171b6c0c960b71a7020d9f60077f6af931a8bbf590da0223dacf75c7af0180546001600160a01b0385166001600160a01b031990911617905550505050565b6040516370a0823160e01b81526001600160a01b038416600482015260009030906370a0823190602401602060405180830381865afa1580156120b3573d6000803e3d6000fd5b505050506040513d601f19601f820116820180604052508101906120d791906126a2565b151590508061193a5760005b6009548110156121e557846001600160a01b03166009828154811061210a5761210a6126bb565b6000918252602090912001546001600160a01b031614156121d35760098054612135906001906126e7565b81548110612145576121456126bb565b600091825260209091200154600980546001600160a01b039092169183908110612171576121716126bb565b9060005260206000200160006101000a8154816001600160a01b0302191690836001600160a01b0316021790555060098054806121b0576121b06126fe565b600082815260209020810160001990810180546001600160a01b03191690550190555b806121dd81612714565b9150506120e3565b5050505050565b6121f4611722565b15610b5b5760405162461bcd60e51b815260206004820152602960248201527f6d7573742064697374726962757465206265666f7265206d696e74696e67206f60448201526872206275726e696e6760b81b606482015260840161060a565b8280548282559060005260206000209081019282156122a8579160200282015b828111156122a857825182546001600160a01b0319166001600160a01b03909116178255602090920191600190910190612273565b506122b49291506122d2565b5090565b508054600082559060005260206000209081019061074191905b5b808211156122b457600081556001016122d3565b600060208083528351808285015260005b81811015612314578581018301518582016040015282016122f8565b81811115612326576000604083870101525b50601f01601f1916929092016040019392505050565b6001600160a01b038116811461074157600080fd5b6000806040838503121561236457600080fd5b823561236f8161233c565b946020939093013593505050565b60006020828403121561238f57600080fd5b8135611e068161233c565b634e487b7160e01b600052604160045260246000fd5b604051601f8201601f1916810167ffffffffffffffff811182821017156123d9576123d961239a565b604052919050565b600080600080608085870312156123f757600080fd5b84356124028161233c565b93506020858101356124138161233c565b935060408601359250606086013567ffffffffffffffff8082111561243757600080fd5b818801915088601f83011261244b57600080fd5b81358181111561245d5761245d61239a565b61246f601f8201601f191685016123b0565b9150808252898482850101111561248557600080fd5b808484018584013760008482840101525080935050505092959194509250565b6000602082840312156124b757600080fd5b5035919050565b6000806000606084860312156124d357600080fd5b83356124de8161233c565b925060208401356124ee8161233c565b929592945050506040919091013590565b6000806040838503121561251257600080fd5b823561251d8161233c565b9150602083013561252d8161233c565b809150509250929050565b600067ffffffffffffffff8211156125525761255261239a565b5060051b60200190565b6000602080838503121561256f57600080fd5b823567ffffffffffffffff81111561258657600080fd5b8301601f8101851361259757600080fd5b80356125aa6125a582612538565b6123b0565b81815260059190911b820183019083810190878311156125c957600080fd5b928401925b828410156125f05783356125e18161233c565b825292840192908401906125ce565b979650505050505050565b600181811c9082168061260f57607f821691505b6020821081141561263057634e487b7160e01b600052602260045260246000fd5b50919050565b6020808252818101527f4f776e61626c653a2063616c6c6572206973206e6f7420746865206f776e6572604082015260600190565b6020808252601f908201527f5265656e7472616e637947756172643a207265656e7472616e742063616c6c00604082015260600190565b6000602082840312156126b457600080fd5b5051919050565b634e487b7160e01b600052603260045260246000fd5b634e487b7160e01b600052601160045260246000fd5b6000828210156126f9576126f96126d1565b500390565b634e487b7160e01b600052603160045260246000fd5b6000600019821415612728576127286126d1565b5060010190565b60008219821115612742576127426126d1565b500190565b6000816000190483118215151615612761576127616126d1565b500290565b60006020828403121561277857600080fd5b81518015158114611e0657600080fd5b60006060820160018060a01b03808716845260206060818601528287548085526080870191508860005282600020945060005b818110156127d95785548516835260019586019592840192016127bb565b5050858103604087015286518082529082019350915080860160005b83811015612811578151855293820193908201906001016127f5565b509298975050505050505050565b60006020828403121561283157600080fd5b8151611e068161233c565b600082601f83011261284d57600080fd5b8151602061285d6125a583612538565b82815260059290921b8401810191818101908684111561287c57600080fd5b8286015b848110156128975780518352918301918301612880565b509695505050505050565b600080604083850312156128b557600080fd5b825167ffffffffffffffff808211156128cd57600080fd5b818501915085601f8301126128e157600080fd5b815160206128f16125a583612538565b82815260059290921b8401810191818101908984111561291057600080fd5b948201945b838610156129375785516129288161233c565b82529482019490820190612915565b9188015191965090935050508082111561295057600080fd5b5061295d8582860161283c565b9150509250929050565b604080825283519082018190526000906020906060840190828701845b828110156129a95781516001600160a01b031684529284019290840190600101612984565b5050506001600160a01b039490941692019190915250919050565b6000826129e157634e487b7160e01b600052601260045260246000fd5b50049056fea26469706673582212208258224a6037325e3d516ede4dbd76cb44b4d5a39a903163d811c6afdeae88f964736f6c634300080c0033","linkReferences":{}},"methodIdentifiers":{"HolderAllowlist(address)":"ca17f191","LastDistribution()":"60872e37","LockedForDistribution()":"6f55d0ee","ManagedNFTs(uint256)":"4f7fc87b","MinDistributionPeriod()":"3e334bfe","Version()":"bb62860d","addManagedNFT(address)":"95c94287","allowance(address,address)":"dd62ed3e","approve(address,uint256)":"095ea7b3","approveHolder(address)":"18395d6d","balanceOf(address)":"70a08231","burn(uint256)":"42966c68","burnAndDistribute(uint256)":"1b7333c1","burnFrom(address,uint256)":"79cc6790","burnFromAndDistribute(address,uint256)":"683963cc","decimals()":"313ce567","decreaseAllowance(address,uint256)":"a457c2d7","disapproveHolder(address)":"0f945e17","distribute(uint256)":"91c05b0b","distributeToAllHolders()":"885138df","increaseAllowance(address,uint256)":"39509351","isApprovedHolder(address)":"ff101083","mint(address,uint256)":"40c10f19","mintAndDistribute(address,uint256)":"61e390cb","name()":"06fdde03","onERC721Received(address,address,uint256,bytes)":"150b7a02","owner()":"8da5cb5b","releaseManagedNFT(address,address)":"36fb6062","renounceOwnership()":"715018a6","setDistributableERC20s(address[])":"de37b111","symbol()":"95d89b41","totalSupply()":"18160ddd","transfer(address,uint256)":"a9059cbb","transferFrom(address,address,uint256)":"23b872dd","transferOwnership(address)":"f2fde38b","withdrawFromAllManagedNFTs()":"60676ff3","withdrawFromManagedNFTs(uint256)":"a34ae588"},"id":0}