{
  "_format": "hh-sol-artifact-1",
  "contractName": "LiquidInfrastructureERC20",
  "sourceName": "contracts/LiquidInfrastructureERC20.sol",
  "abi": [
    {
      "inputs": [
        {
          "internalType": "string",
          "name": "_name",
          "type": "string"
        },
        {
          "internalType": "string",
          "name": "_symbol",
          "type": "string"
        },
        {
          "internalType": "address[]",
          "name": "_managedNFTs",
          "type": "address[]"
        },
        {
          "internalType": "address[]",
          "name": "_approvedHolders",
          "type": "address[]"
        },
        {
          "internalType": "uint256",
          "name": "_minDistributionPeriod",
          "type": "uint256"
        },
        {
          "internalType": "address[]",
          "name": "_distributableErc20s",
          "type": "address[]"
        }
      ],
      "stateMutability": "nonpayable",
      "type": "constructor"
    },
    {
      "anonymous": false,
      "inputs": [
        {
          "indexed": false,
          "internalType": "address",
          "name": "nft",
          "type": "address"
        }
      ],
      "name": "AddManagedNFT",
      "type": "event"
    },
    {
      "anonymous": false,
      "inputs": [
        {
          "indexed": true,
          "internalType": "address",
          "name": "owner",
          "type": "address"
        },
        {
          "indexed": true,
          "internalType": "address",
          "name": "spender",
          "type": "address"
        },
        {
          "indexed": false,
          "internalType": "uint256",
          "name": "value",
          "type": "uint256"
        }
      ],
      "name": "Approval",
      "type": "event"
    },
    {
      "anonymous": false,
      "inputs": [],
      "name": "Deployed",
      "type": "event"
    },
    {
      "anonymous": false,
      "inputs": [
        {
          "indexed": false,
          "internalType": "address",
          "name": "recipient",
          "type": "address"
        },
        {
          "indexed": false,
          "internalType": "address[]",
          "name": "tokens",
          "type": "address[]"
        },
        {
          "indexed": false,
          "internalType": "uint256[]",
          "name": "amounts",
          "type": "uint256[]"
        }
      ],
      "name": "Distribution",
      "type": "event"
    },
    {
      "anonymous": false,
      "inputs": [],
      "name": "DistributionFinished",
      "type": "event"
    },
    {
      "anonymous": false,
      "inputs": [],
      "name": "DistributionStarted",
      "type": "event"
    },
    {
      "anonymous": false,
      "inputs": [
        {
          "indexed": true,
          "internalType": "address",
          "name": "previousOwner",
          "type": "address"
        },
        {
          "indexed": true,
          "internalType": "address",
          "name": "newOwner",
          "type": "address"
        }
      ],
      "name": "OwnershipTransferred",
      "type": "event"
    },
    {
      "anonymous": false,
      "inputs": [
        {
          "indexed": false,
          "internalType": "address",
          "name": "nft",
          "type": "address"
        },
        {
          "indexed": false,
          "internalType": "address",
          "name": "to",
          "type": "address"
        }
      ],
      "name": "ReleaseManagedNFT",
      "type": "event"
    },
    {
      "anonymous": false,
      "inputs": [
        {
          "indexed": true,
          "internalType": "address",
          "name": "from",
          "type": "address"
        },
        {
          "indexed": true,
          "internalType": "address",
          "name": "to",
          "type": "address"
        },
        {
          "indexed": false,
          "internalType": "uint256",
          "name": "value",
          "type": "uint256"
        }
      ],
      "name": "Transfer",
      "type": "event"
    },
    {
      "anonymous": false,
      "inputs": [
        {
          "indexed": false,
          "internalType": "address",
          "name": "source",
          "type": "address"
        }
      ],
      "name": "Withdrawal",
      "type": "event"
    },
    {
      "anonymous": false,
      "inputs": [],
      "name": "WithdrawalFinished",
      "type": "event"
    },
    {
      "anonymous": false,
      "inputs": [],
      "name": "WithdrawalStarted",
      "type": "event"
    },
    {
      "inputs": [
        {
          "internalType": "address",
          "name": "",
          "type": "address"
        }
      ],
      "name": "HolderAllowlist",
      "outputs": [
        {
          "internalType": "bool",
          "name": "",
          "type": "bool"
        }
      ],
      "stateMutability": "view",
      "type": "function"
    },
    {
      "inputs": [],
      "name": "LastDistribution",
      "outputs": [
        {
          "internalType": "uint256",
          "name": "",
          "type": "uint256"
        }
      ],
      "stateMutability": "view",
      "type": "function"
    },
    {
      "inputs": [],
      "name": "LockedForDistribution",
      "outputs": [
        {
          "internalType": "bool",
          "name": "",
          "type": "bool"
        }
      ],
      "stateMutability": "view",
      "type": "function"
    },
    {
      "inputs": [
        {
          "internalType": "uint256",
          "name": "",
          "type": "uint256"
        }
      ],
      "name": "ManagedNFTs",
      "outputs": [
        {
          "internalType": "address",
          "name": "",
          "type": "address"
        }
      ],
      "stateMutability": "view",
      "type": "function"
    },
    {
      "inputs": [],
      "name": "MinDistributionPeriod",
      "outputs": [
        {
          "internalType": "uint256",
          "name": "",
          "type": "uint256"
        }
      ],
      "stateMutability": "view",
      "type": "function"
    },
    {
      "inputs": [],
      "name": "Version",
      "outputs": [
        {
          "internalType": "uint256",
          "name": "",
          "type": "uint256"
        }
      ],
      "stateMutability": "view",
      "type": "function"
    },
    {
      "inputs": [
        {
          "internalType": "address",
          "name": "nftContract",
          "type": "address"
        }
      ],
      "name": "addManagedNFT",
      "outputs": [],
      "stateMutability": "nonpayable",
      "type": "function"
    },
    {
      "inputs": [
        {
          "internalType": "address",
          "name": "owner",
          "type": "address"
        },
        {
          "internalType": "address",
          "name": "spender",
          "type": "address"
        }
      ],
      "name": "allowance",
      "outputs": [
        {
          "internalType": "uint256",
          "name": "",
          "type": "uint256"
        }
      ],
      "stateMutability": "view",
      "type": "function"
    },
    {
      "inputs": [
        {
          "internalType": "address",
          "name": "spender",
          "type": "address"
        },
        {
          "internalType": "uint256",
          "name": "amount",
          "type": "uint256"
        }
      ],
      "name": "approve",
      "outputs": [
        {
          "internalType": "bool",
          "name": "",
          "type": "bool"
        }
      ],
      "stateMutability": "nonpayable",
      "type": "function"
    },
    {
      "inputs": [
        {
          "internalType": "address",
          "name": "holder",
          "type": "address"
        }
      ],
      "name": "approveHolder",
      "outputs": [],
      "stateMutability": "nonpayable",
      "type": "function"
    },
    {
      "inputs": [
        {
          "internalType": "address",
          "name": "account",
          "type": "address"
        }
      ],
      "name": "balanceOf",
      "outputs": [
        {
          "internalType": "uint256",
          "name": "",
          "type": "uint256"
        }
      ],
      "stateMutability": "view",
      "type": "function"
    },
    {
      "inputs": [
        {
          "internalType": "uint256",
          "name": "amount",
          "type": "uint256"
        }
      ],
      "name": "burn",
      "outputs": [],
      "stateMutability": "nonpayable",
      "type": "function"
    },
    {
      "inputs": [
        {
          "internalType": "uint256",
          "name": "amount",
          "type": "uint256"
        }
      ],
      "name": "burnAndDistribute",
      "outputs": [],
      "stateMutability": "nonpayable",
      "type": "function"
    },
    {
      "inputs": [
        {
          "internalType": "address",
          "name": "account",
          "type": "address"
        },
        {
          "internalType": "uint256",
          "name": "amount",
          "type": "uint256"
        }
      ],
      "name": "burnFrom",
      "outputs": [],
      "stateMutability": "nonpayable",
      "type": "function"
    },
    {
      "inputs": [
        {
          "internalType": "address",
          "name": "account",
          "type": "address"
        },
        {
          "internalType": "uint256",
          "name": "amount",
          "type": "uint256"
        }
      ],
      "name": "burnFromAndDistribute",
      "outputs": [],
      "stateMutability": "nonpayable",
      "type": "function"
    },
    {
      "inputs": [],
      "name": "decimals",
      "outputs": [
        {
          "internalType": "uint8",
          "name": "",
          "type": "uint8"
        }
      ],
      "stateMutability": "view",
      "type": "function"
    },
    {
      "inputs": [
        {
          "internalType": "address",
          "name": "spender",
          "type": "address"
        },
        {
          "internalType": "uint256",
          "name": "subtractedValue",
          "type": "uint256"
        }
      ],
      "name": "decreaseAllowance",
      "outputs": [
        {
          "internalType": "bool",
          "name": "",
          "type": "bool"
        }
      ],
      "stateMutability": "nonpayable",
      "type": "function"
    },
    {
      "inputs": [
        {
          "internalType": "address",
          "name": "holder",
          "type": "address"
        }
      ],
      "name": "disapproveHolder",
      "outputs": [],
      "stateMutability": "nonpayable",
      "type": "function"
    },
    {
      "inputs": [
        {
          "internalType": "uint256",
          "name": "numDistributions",
          "type": "uint256"
        }
      ],
      "name": "distribute",
      "outputs": [],
      "stateMutability": "nonpayable",
      "type": "function"
    },
    {
      "inputs": [],
      "name": "distributeToAllHolders",
      "outputs": [],
      "stateMutability": "nonpayable",
      "type": "function"
    },
    {
      "inputs": [
        {
          "internalType": "address",
          "name": "spender",
          "type": "address"
        },
        {
          "internalType": "uint256",
          "name": "addedValue",
          "type": "uint256"
        }
      ],
      "name": "increaseAllowance",
      "outputs": [
        {
          "internalType": "bool",
          "name": "",
          "type": "bool"
        }
      ],
      "stateMutability": "nonpayable",
      "type": "function"
    },
    {
      "inputs": [
        {
          "internalType": "address",
          "name": "account",
          "type": "address"
        }
      ],
      "name": "isApprovedHolder",
      "outputs": [
        {
          "internalType": "bool",
          "name": "",
          "type": "bool"
        }
      ],
      "stateMutability": "view",
      "type": "function"
    },
    {
      "inputs": [
        {
          "internalType": "address",
          "name": "account",
          "type": "address"
        },
        {
          "internalType": "uint256",
          "name": "amount",
          "type": "uint256"
        }
      ],
      "name": "mint",
      "outputs": [],
      "stateMutability": "nonpayable",
      "type": "function"
    },
    {
      "inputs": [
        {
          "internalType": "address",
          "name": "account",
          "type": "address"
        },
        {
          "internalType": "uint256",
          "name": "amount",
          "type": "uint256"
        }
      ],
      "name": "mintAndDistribute",
      "outputs": [],
      "stateMutability": "nonpayable",
      "type": "function"
    },
    {
      "inputs": [],
      "name": "name",
      "outputs": [
        {
          "internalType": "string",
          "name": "",
          "type": "string"
        }
      ],
      "stateMutability": "view",
      "type": "function"
    },
    {
      "inputs": [
        {
          "internalType": "address",
          "name": "",
          "type": "address"
        },
        {
          "internalType": "address",
          "name": "",
          "type": "address"
        },
        {
          "internalType": "uint256",
          "name": "",
          "type": "uint256"
        },
        {
          "internalType": "bytes",
          "name": "",
          "type": "bytes"
        }
      ],
      "name": "onERC721Received",
      "outputs": [
        {
          "internalType": "bytes4",
          "name": "",
          "type": "bytes4"
        }
      ],
      "stateMutability": "nonpayable",
      "type": "function"
    },
    {
      "inputs": [],
      "name": "owner",
      "outputs": [
        {
          "internalType": "address",
          "name": "",
          "type": "address"
        }
      ],
      "stateMutability": "view",
      "type": "function"
    },
    {
      "inputs": [
        {
          "internalType": "address",
          "name": "nftContract",
          "type": "address"
        },
        {
          "internalType": "address",
          "name": "to",
          "type": "address"
        }
      ],
      "name": "releaseManagedNFT",
      "outputs": [],
      "stateMutability": "nonpayable",
      "type": "function"
    },
    {
      "inputs": [],
      "name": "renounceOwnership",
      "outputs": [],
      "stateMutability": "nonpayable",
      "type": "function"
    },
    {
      "inputs": [
        {
          "internalType": "address[]",
          "name": "_distributableERC20s",
          "type": "address[]"
        }
      ],
      "name": "setDistributableERC20s",
      "outputs": [],
      "stateMutability": "nonpayable",
      "type": "function"
    },
    {
      "inputs": [],
      "name": "symbol",
      "outputs": [
        {
          "internalType": "string",
          "name": "",
          "type": "string"
        }
      ],
      "stateMutability": "view",
      "type": "function"
    },
    {
      "inputs": [],
      "name": "totalSupply",
      "outputs": [
        {
          "internalType": "uint256",
          "name": "",
          "type": "uint256"
        }
      ],
      "stateMutability": "view",
      "type": "function"
    },
    {
      "inputs": [
        {
          "internalType": "address",
          "name": "recipient",
          "type": "address"
        },
        {
          "internalType": "uint256",
          "name": "amount",
          "type": "uint256"
        }
      ],
      "name": "transfer",
      "outputs": [
        {
          "internalType": "bool",
          "name": "",
          "type": "bool"
        }
      ],
      "stateMutability": "nonpayable",
      "type": "function"
    },
    {
      "inputs": [
        {
          "internalType": "address",
          "name": "sender",
          "type": "address"
        },
        {
          "internalType": "address",
          "name": "recipient",
          "type": "address"
        },
        {
          "internalType": "uint256",
          "name": "amount",
          "type": "uint256"
        }
      ],
      "name": "transferFrom",
      "outputs": [
        {
          "internalType": "bool",
          "name": "",
          "type": "bool"
        }
      ],
      "stateMutability": "nonpayable",
      "type": "function"
    },
    {
      "inputs": [
        {
          "internalType": "address",
          "name": "newOwner",
          "type": "address"
        }
      ],
      "name": "transferOwnership",
      "outputs": [],
      "stateMutability": "nonpayable",
      "type": "function"
    },
    {
      "inputs": [],
      "name": "withdrawFromAllManagedNFTs",
      "outputs": [],
      "stateMutability": "nonpayable",
      "type": "function"
    },
    {
      "inputs": [
        {
          "internalType": "uint256",
          "name": "numWithdrawals",
          "type": "uint256"
        }
      ],
      "name": "withdrawFromManagedNFTs",
      "outputs": [],
      "stateMutability": "nonpayable",
      "type": "function"
    }
  ],
  "bytecode": "0x60806040523480156200001157600080fd5b5060405162005795380380620057958339818101604052810190620000379190620006cb565b858581600390805190602001906200005192919062000274565b5080600490805190602001906200006a92919062000274565b5050506200008d62000081620001a660201b60201c565b620001ae60201b60201c565b600160068190555083600a9080519060200190620000ad92919062000305565b5043600c8190555060005b83518110156200014d576001600b6000868481518110620000de57620000dd62000802565b5b602002602001015173ffffffffffffffffffffffffffffffffffffffff1673ffffffffffffffffffffffffffffffffffffffff16815260200190815260200160002060006101000a81548160ff0219169083151502179055508080620001449062000860565b915050620000b8565b5081600d8190555080600790805190602001906200016d92919062000305565b507f3fad920548ed9f22deb8333b4cc1e4f9bc36666a1c2aa30ad59a0a3bb9dcbb9260405160405180910390a150505050505062000913565b600033905090565b6000600560009054906101000a900473ffffffffffffffffffffffffffffffffffffffff16905081600560006101000a81548173ffffffffffffffffffffffffffffffffffffffff021916908373ffffffffffffffffffffffffffffffffffffffff1602179055508173ffffffffffffffffffffffffffffffffffffffff168173ffffffffffffffffffffffffffffffffffffffff167f8be0079c531659141344cd1fd0a4f28419497f9722a3daafe3b4186f6b6457e060405160405180910390a35050565b8280546200028290620008dd565b90600052602060002090601f016020900481019282620002a65760008555620002f2565b82601f10620002c157805160ff1916838001178555620002f2565b82800160010185558215620002f2579182015b82811115620002f1578251825591602001919060010190620002d4565b5b50905062000301919062000394565b5090565b82805482825590600052602060002090810192821562000381579160200282015b82811115620003805782518260006101000a81548173ffffffffffffffffffffffffffffffffffffffff021916908373ffffffffffffffffffffffffffffffffffffffff1602179055509160200191906001019062000326565b5b50905062000390919062000394565b5090565b5b80821115620003af57600081600090555060010162000395565b5090565b6000604051905090565b600080fd5b600080fd5b600080fd5b600080fd5b6000601f19601f8301169050919050565b7f4e487b7100000000000000000000000000000000000000000000000000000000600052604160045260246000fd5b6200041c82620003d1565b810181811067ffffffffffffffff821117156200043e576200043d620003e2565b5b80604052505050565b600062000453620003b3565b905062000461828262000411565b919050565b600067ffffffffffffffff821115620004845762000483620003e2565b5b6200048f82620003d1565b9050602081019050919050565b60005b83811015620004bc5780820151818401526020810190506200049f565b83811115620004cc576000848401525b50505050565b6000620004e9620004e38462000466565b62000447565b905082815260208101848484011115620005085762000507620003cc565b5b620005158482856200049c565b509392505050565b600082601f830112620005355762000534620003c7565b5b815162000547848260208601620004d2565b91505092915050565b600067ffffffffffffffff8211156200056e576200056d620003e2565b5b602082029050602081019050919050565b600080fd5b600073ffffffffffffffffffffffffffffffffffffffff82169050919050565b6000620005b18262000584565b9050919050565b620005c381620005a4565b8114620005cf57600080fd5b50565b600081519050620005e381620005b8565b92915050565b600062000600620005fa8462000550565b62000447565b905080838252602082019050602084028301858111156200062657620006256200057f565b5b835b818110156200065357806200063e8882620005d2565b84526020840193505060208101905062000628565b5050509392505050565b600082601f830112620006755762000674620003c7565b5b815162000687848260208601620005e9565b91505092915050565b6000819050919050565b620006a58162000690565b8114620006b157600080fd5b50565b600081519050620006c5816200069a565b92915050565b60008060008060008060c08789031215620006eb57620006ea620003bd565b5b600087015167ffffffffffffffff8111156200070c576200070b620003c2565b5b6200071a89828a016200051d565b965050602087015167ffffffffffffffff8111156200073e576200073d620003c2565b5b6200074c89828a016200051d565b955050604087015167ffffffffffffffff81111562000770576200076f620003c2565b5b6200077e89828a016200065d565b945050606087015167ffffffffffffffff811115620007a257620007a1620003c2565b5b620007b089828a016200065d565b9350506080620007c389828a01620006b4565b92505060a087015167ffffffffffffffff811115620007e757620007e6620003c2565b5b620007f589828a016200065d565b9150509295509295509295565b7f4e487b7100000000000000000000000000000000000000000000000000000000600052603260045260246000fd5b7f4e487b7100000000000000000000000000000000000000000000000000000000600052601160045260246000fd5b60006200086d8262000690565b91507fffffffffffffffffffffffffffffffffffffffffffffffffffffffffffffffff821415620008a357620008a262000831565b5b600182019050919050565b7f4e487b7100000000000000000000000000000000000000000000000000000000600052602260045260246000fd5b60006002820490506001821680620008f657607f821691505b602082108114156200090d576200090c620008ae565b5b50919050565b614e7280620009236000396000f3fe608060405234801561001057600080fd5b50600436106102275760003560e01c8063683963cc1161013057806395d89b41116100b8578063ca17f1911161007c578063ca17f19114610628578063dd62ed3e14610658578063de37b11114610688578063f2fde38b146106a4578063ff101083146106c057610227565b806395d89b4114610570578063a34ae5881461058e578063a457c2d7146105aa578063a9059cbb146105da578063bb62860d1461060a57610227565b806379cc6790116100ff57806379cc6790146104f4578063885138df146105105780638da5cb5b1461051a57806391c05b0b1461053857806395c942871461055457610227565b8063683963cc146104805780636f55d0ee1461049c57806370a08231146104ba578063715018a6146104ea57610227565b806336fb6062116101b357806342966c681161018257806342966c68146103f05780634f7fc87b1461040c57806360676ff31461043c57806360872e371461044657806361e390cb1461046457610227565b806336fb60621461036a57806339509351146103865780633e334bfe146103b657806340c10f19146103d457610227565b806318160ddd116101fa57806318160ddd146102c657806318395d6d146102e45780631b7333c11461030057806323b872dd1461031c578063313ce5671461034c57610227565b806306fdde031461022c578063095ea7b31461024a5780630f945e171461027a578063150b7a0214610296575b600080fd5b6102346106f0565b604051610241919061320b565b60405180910390f35b610264600480360381019061025f91906132d5565b610782565b6040516102719190613330565b60405180910390f35b610294600480360381019061028f919061334b565b6107a0565b005b6102b060048036038101906102ab91906134ad565b6108bf565b6040516102bd919061356b565b60405180910390f35b6102ce6108d3565b6040516102db9190613595565b60405180910390f35b6102fe60048036038101906102f9919061334b565b6108dd565b005b61031a600480360381019061031591906135b0565b6109fd565b005b610336600480360381019061033191906135dd565b610a1f565b6040516103439190613330565b60405180910390f35b610354610b17565b604051610361919061364c565b60405180910390f35b610384600480360381019061037f9190613667565b610b20565b005b6103a0600480360381019061039b91906132d5565b610ee8565b6040516103ad9190613330565b60405180910390f35b6103be610f94565b6040516103cb9190613595565b60405180910390f35b6103ee60048036038101906103e991906132d5565b610f9a565b005b61040a600480360381019061040591906135b0565b61107a565b005b610426600480360381019061042191906135b0565b61108e565b60405161043391906136b6565b60405180910390f35b6104446110cd565b005b61044e6110dd565b60405161045b9190613595565b60405180910390f35b61047e600480360381019061047991906132d5565b6110e3565b005b61049a600480360381019061049591906132d5565b611183565b005b6104a46111a7565b6040516104b19190613330565b60405180910390f35b6104d460048036038101906104cf919061334b565b6111ba565b6040516104e19190613595565b60405180910390f35b6104f2611202565b005b61050e600480360381019061050991906132d5565b61128a565b005b610518611305565b005b61052261132a565b60405161052f91906136b6565b60405180910390f35b610552600480360381019061054d91906135b0565b611354565b005b61056e6004803603810190610569919061334b565b61174e565b005b6105786119c8565b604051610585919061320b565b60405180910390f35b6105a860048036038101906105a391906135b0565b611a5a565b005b6105c460048036038101906105bf91906132d5565b611cd7565b6040516105d19190613330565b60405180910390f35b6105f460048036038101906105ef91906132d5565b611dc2565b6040516106019190613330565b60405180910390f35b610612611de0565b60405161061f9190613595565b60405180910390f35b610642600480360381019061063d919061334b565b611de5565b60405161064f9190613330565b60405180910390f35b610672600480360381019061066d9190613667565b611e05565b60405161067f9190613595565b60405180910390f35b6106a2600480360381019061069d9190613799565b611e8c565b005b6106be60048036038101906106b9919061334b565b611f22565b005b6106da60048036038101906106d5919061334b565b61201a565b6040516106e79190613330565b60405180910390f35b6060600380546106ff90613811565b80601f016020809104026020016040519081016040528092919081815260200182805461072b90613811565b80156107785780601f1061074d57610100808354040283529160200191610778565b820191906000526020600020905b81548152906001019060200180831161075b57829003601f168201915b5050505050905090565b600061079661078f612070565b8484612078565b6001905092915050565b6107a8612070565b73ffffffffffffffffffffffffffffffffffffffff166107c661132a565b73ffffffffffffffffffffffffffffffffffffffff161461081c576040517f08c379a00000000000000000000000000000000000000000000000000000000081526004016108139061388f565b60405180910390fd5b6108258161201a565b610864576040517f08c379a000000000000000000000000000000000000000000000000000000000815260040161085b906138fb565b60405180910390fd5b6000600b60008373ffffffffffffffffffffffffffffffffffffffff1673ffffffffffffffffffffffffffffffffffffffff16815260200190815260200160002060006101000a81548160ff02191690831515021790555050565b600063150b7a0260e01b9050949350505050565b6000600254905090565b6108e5612070565b73ffffffffffffffffffffffffffffffffffffffff1661090361132a565b73ffffffffffffffffffffffffffffffffffffffff1614610959576040517f08c379a00000000000000000000000000000000000000000000000000000000081526004016109509061388f565b60405180910390fd5b6109628161201a565b156109a2576040517f08c379a000000000000000000000000000000000000000000000000000000000815260040161099990613967565b60405180910390fd5b6001600b60008373ffffffffffffffffffffffffffffffffffffffff1673ffffffffffffffffffffffffffffffffffffffff16815260200190815260200160002060006101000a81548160ff02191690831515021790555050565b610a05612243565b15610a1357610a12611305565b5b610a1c8161107a565b50565b6000610a2c848484612286565b6000600160008673ffffffffffffffffffffffffffffffffffffffff1673ffffffffffffffffffffffffffffffffffffffff1681526020019081526020016000206000610a77612070565b73ffffffffffffffffffffffffffffffffffffffff1673ffffffffffffffffffffffffffffffffffffffff16815260200190815260200160002054905082811015610af7576040517f08c379a0000000000000000000000000000000000000000000000000000000008152600401610aee906139f9565b60405180910390fd5b610b0b85610b03612070565b858403612078565b60019150509392505050565b60006012905090565b610b28612070565b73ffffffffffffffffffffffffffffffffffffffff16610b4661132a565b73ffffffffffffffffffffffffffffffffffffffff1614610b9c576040517f08c379a0000000000000000000000000000000000000000000000000000000008152600401610b939061388f565b60405180910390fd5b60026006541415610be2576040517f08c379a0000000000000000000000000000000000000000000000000000000008152600401610bd990613a65565b60405180910390fd5b600260068190555060008290508073ffffffffffffffffffffffffffffffffffffffff166323b872dd30848473ffffffffffffffffffffffffffffffffffffffff16636cf324ef6040518163ffffffff1660e01b8152600401602060405180830381865afa158015610c58573d6000803e3d6000fd5b505050506040513d601f19601f82011682018060405250810190610c7c9190613a9a565b6040518463ffffffff1660e01b8152600401610c9a93929190613ac7565b600060405180830381600087803b158015610cb457600080fd5b505af1158015610cc8573d6000803e3d6000fd5b5050505060005b600a80549050811015610e60576000600a8281548110610cf257610cf1613afe565b5b9060005260206000200160009054906101000a900473ffffffffffffffffffffffffffffffffffffffff1690508473ffffffffffffffffffffffffffffffffffffffff168173ffffffffffffffffffffffffffffffffffffffff161415610e4c57600a6001600a80549050610d679190613b5c565b81548110610d7857610d77613afe565b5b9060005260206000200160009054906101000a900473ffffffffffffffffffffffffffffffffffffffff16600a8381548110610db757610db6613afe565b5b9060005260206000200160006101000a81548173ffffffffffffffffffffffffffffffffffffffff021916908373ffffffffffffffffffffffffffffffffffffffff160217905550600a805480610e1157610e10613b90565b5b6001900381819060005260206000200160006101000a81549073ffffffffffffffffffffffffffffffffffffffff0219169055905550610e60565b508080610e5890613bbf565b915050610ccf565b506001610ea2576040517f08c379a0000000000000000000000000000000000000000000000000000000008152600401610e9990613c7a565b60405180910390fd5b7f34cfb88cfadfa0c5b6fdfd3e4b9e308b1230c1d3345beafa57fe727ffa5c699f8383604051610ed3929190613c9a565b60405180910390a15060016006819055505050565b6000610f8a610ef5612070565b848460016000610f03612070565b73ffffffffffffffffffffffffffffffffffffffff1673ffffffffffffffffffffffffffffffffffffffff16815260200190815260200160002060008873ffffffffffffffffffffffffffffffffffffffff1673ffffffffffffffffffffffffffffffffffffffff16815260200190815260200160002054610f859190613cc3565b612078565b6001905092915050565b600d5481565b610fa2612070565b73ffffffffffffffffffffffffffffffffffffffff16610fc061132a565b73ffffffffffffffffffffffffffffffffffffffff1614611016576040517f08c379a000000000000000000000000000000000000000000000000000000000815260040161100d9061388f565b60405180910390fd5b6002600654141561105c576040517f08c379a000000000000000000000000000000000000000000000000000000000815260040161105390613a65565b60405180910390fd5b600260068190555061106e8282612507565b60016006819055505050565b61108b611085612070565b82612667565b50565b600a818154811061109e57600080fd5b906000526020600020016000915054906101000a900473ffffffffffffffffffffffffffffffffffffffff1681565b6110db600a80549050611a5a565b565b600c5481565b6110eb612070565b73ffffffffffffffffffffffffffffffffffffffff1661110961132a565b73ffffffffffffffffffffffffffffffffffffffff161461115f576040517f08c379a00000000000000000000000000000000000000000000000000000000081526004016111569061388f565b60405180910390fd5b611167612243565b1561117557611174611305565b5b61117f8282610f9a565b5050565b61118b612243565b1561119957611198611305565b5b6111a3828261128a565b5050565b600e60009054906101000a900460ff1681565b60008060008373ffffffffffffffffffffffffffffffffffffffff1673ffffffffffffffffffffffffffffffffffffffff168152602001908152602001600020549050919050565b61120a612070565b73ffffffffffffffffffffffffffffffffffffffff1661122861132a565b73ffffffffffffffffffffffffffffffffffffffff161461127e576040517f08c379a00000000000000000000000000000000000000000000000000000000081526004016112759061388f565b60405180910390fd5b611288600061283e565b565b600061129d83611298612070565b611e05565b9050818110156112e2576040517f08c379a00000000000000000000000000000000000000000000000000000000081526004016112d990613d8b565b60405180910390fd5b6112f6836112ee612070565b848403612078565b6113008383612667565b505050565b60006009805490509050600081111561132757611326600980549050611354565b5b50565b6000600560009054906101000a900473ffffffffffffffffffffffffffffffffffffffff16905090565b6002600654141561139a576040517f08c379a000000000000000000000000000000000000000000000000000000000815260040161139190613a65565b60405180910390fd5b6002600681905550600081116113e5576040517f08c379a00000000000000000000000000000000000000000000000000000000081526004016113dc90613e1d565b60405180910390fd5b600e60009054906101000a900460ff1661144957611401612243565b611440576040517f08c379a000000000000000000000000000000000000000000000000000000000815260040161143790613e89565b60405180910390fd5b611448612904565b5b600061146782600f5461145c9190613cc3565b600980549050612b51565b90506000600f5490505b818110156117225760006009828154811061148f5761148e613afe565b5b9060005260206000200160009054906101000a900473ffffffffffffffffffffffffffffffffffffffff1690506114c58161201a565b1561170e57600060078054905067ffffffffffffffff8111156114eb576114ea613382565b5b6040519080825280602002602001820160405280156115195781602001602082028036833780820191505090505b50905060005b6007805490508110156116cf5760006007828154811061154257611541613afe565b5b9060005260206000200160009054906101000a900473ffffffffffffffffffffffffffffffffffffffff16905060003073ffffffffffffffffffffffffffffffffffffffff166370a08231866040518263ffffffff1660e01b81526004016115aa91906136b6565b602060405180830381865afa1580156115c7573d6000803e3d6000fd5b505050506040513d601f19601f820116820180604052508101906115eb9190613a9a565b600884815481106115ff576115fe613afe565b5b90600052602060002001546116149190613ea9565b90508173ffffffffffffffffffffffffffffffffffffffff1663a9059cbb86836040518363ffffffff1660e01b8152600401611651929190613f03565b6020604051808303816000875af1158015611670573d6000803e3d6000fd5b505050506040513d601f19601f820116820180604052508101906116949190613f58565b156116ba57808484815181106116ad576116ac613afe565b5b6020026020010181815250505b505080806116c790613bbf565b91505061151f565b507fea1823f879bc0cdf8f0b498e336723ace2adf2f7ea9c0a0257b0ba3e5783a9568260078360405161170493929190614167565b60405180910390a1505b50808061171a90613bbf565b915050611471565b80600f81905550600980549050600f54141561174157611740612b6a565b5b5050600160068190555050565b611756612070565b73ffffffffffffffffffffffffffffffffffffffff1661177461132a565b73ffffffffffffffffffffffffffffffffffffffff16146117ca576040517f08c379a00000000000000000000000000000000000000000000000000000000081526004016117c19061388f565b60405180910390fd5b600081905060008173ffffffffffffffffffffffffffffffffffffffff16636352211e8373ffffffffffffffffffffffffffffffffffffffff16636cf324ef6040518163ffffffff1660e01b8152600401602060405180830381865afa158015611838573d6000803e3d6000fd5b505050506040513d601f19601f8201168201806040525081019061185c9190613a9a565b6040518263ffffffff1660e01b81526004016118789190613595565b602060405180830381865afa158015611895573d6000803e3d6000fd5b505050506040513d601f19601f820116820180604052508101906118b991906141c1565b90503073ffffffffffffffffffffffffffffffffffffffff168173ffffffffffffffffffffffffffffffffffffffff1614611929576040517f08c379a000000000000000000000000000000000000000000000000000000000815260040161192090614260565b60405180910390fd5b600a839080600181540180825580915050600190039060005260206000200160009091909190916101000a81548173ffffffffffffffffffffffffffffffffffffffff021916908373ffffffffffffffffffffffffffffffffffffffff1602179055507f28b73e7a76f54ec0fab0aee63b3054e04ea145d8b8c892292f9b7dd9ff9dc04e836040516119bb91906136b6565b60405180910390a1505050565b6060600480546119d790613811565b80601f0160208091040260200160405190810160405280929190818152602001828054611a0390613811565b8015611a505780601f10611a2557610100808354040283529160200191611a50565b820191906000526020600020905b815481529060010190602001808311611a3357829003601f168201915b5050505050905090565b600e60009054906101000a900460ff1615611aaa576040517f08c379a0000000000000000000000000000000000000000000000000000000008152600401611aa1906142f2565b60405180910390fd5b60006010541415611ae2577ff0049526741dc9d64ae2e63dde9925a8a345a6d29fe69f2dc341b299493f62ad60405160405180910390a15b6000611b0060105483611af59190613cc3565b600a80549050612b51565b9050600060105490505b81811015611c87576000600a8281548110611b2857611b27613afe565b5b9060005260206000200160009054906101000a900473ffffffffffffffffffffffffffffffffffffffff16905060008173ffffffffffffffffffffffffffffffffffffffff16639c3977b56040518163ffffffff1660e01b8152600401600060405180830381865afa158015611ba2573d6000803e3d6000fd5b505050506040513d6000823e3d601f19601f82011682018060405250810190611bcb919061446c565b5090508173ffffffffffffffffffffffffffffffffffffffff1663cb0e095c82306040518363ffffffff1660e01b8152600401611c0992919061456a565b600060405180830381600087803b158015611c2357600080fd5b505af1158015611c37573d6000803e3d6000fd5b505050507fe19ed71156e31b3c9e18ac7ad8d1b79f0a0feb3be18d23dae612e52040aada4b82604051611c6a91906136b6565b60405180910390a150508080611c7f90613bbf565b915050611b0a565b80601081905550600a805490506010541415611cd25760006010819055507f27f9173c8e47488a1236c609f223c541c51bfd78dda423aab8de1794ab0ac71c60405160405180910390a15b505050565b60008060016000611ce6612070565b73ffffffffffffffffffffffffffffffffffffffff1673ffffffffffffffffffffffffffffffffffffffff16815260200190815260200160002060008573ffffffffffffffffffffffffffffffffffffffff1673ffffffffffffffffffffffffffffffffffffffff16815260200190815260200160002054905082811015611da3576040517f08c379a0000000000000000000000000000000000000000000000000000000008152600401611d9a9061460c565b60405180910390fd5b611db7611dae612070565b85858403612078565b600191505092915050565b6000611dd6611dcf612070565b8484612286565b6001905092915050565b600181565b600b6020528060005260406000206000915054906101000a900460ff1681565b6000600160008473ffffffffffffffffffffffffffffffffffffffff1673ffffffffffffffffffffffffffffffffffffffff16815260200190815260200160002060008373ffffffffffffffffffffffffffffffffffffffff1673ffffffffffffffffffffffffffffffffffffffff16815260200190815260200160002054905092915050565b611e94612070565b73ffffffffffffffffffffffffffffffffffffffff16611eb261132a565b73ffffffffffffffffffffffffffffffffffffffff1614611f08576040517f08c379a0000000000000000000000000000000000000000000000000000000008152600401611eff9061388f565b60405180910390fd5b8060079080519060200190611f1e9291906130aa565b5050565b611f2a612070565b73ffffffffffffffffffffffffffffffffffffffff16611f4861132a565b73ffffffffffffffffffffffffffffffffffffffff1614611f9e576040517f08c379a0000000000000000000000000000000000000000000000000000000008152600401611f959061388f565b60405180910390fd5b600073ffffffffffffffffffffffffffffffffffffffff168173ffffffffffffffffffffffffffffffffffffffff16141561200e576040517f08c379a00000000000000000000000000000000000000000000000000000000081526004016120059061469e565b60405180910390fd5b6120178161283e565b50565b6000600b60008373ffffffffffffffffffffffffffffffffffffffff1673ffffffffffffffffffffffffffffffffffffffff16815260200190815260200160002060009054906101000a900460ff169050919050565b600033905090565b600073ffffffffffffffffffffffffffffffffffffffff168373ffffffffffffffffffffffffffffffffffffffff1614156120e8576040517f08c379a00000000000000000000000000000000000000000000000000000000081526004016120df90614730565b60405180910390fd5b600073ffffffffffffffffffffffffffffffffffffffff168273ffffffffffffffffffffffffffffffffffffffff161415612158576040517f08c379a000000000000000000000000000000000000000000000000000000000815260040161214f906147c2565b60405180910390fd5b80600160008573ffffffffffffffffffffffffffffffffffffffff1673ffffffffffffffffffffffffffffffffffffffff16815260200190815260200160002060008473ffffffffffffffffffffffffffffffffffffffff1673ffffffffffffffffffffffffffffffffffffffff168152602001908152602001600020819055508173ffffffffffffffffffffffffffffffffffffffff168373ffffffffffffffffffffffffffffffffffffffff167f8c5be1e5ebec7d5bd14f71427d1e84f3dd0314c0f7b2291e5b200ac8c7c3b925836040516122369190613595565b60405180910390a3505050565b60008061224e6108d3565b148061225f57506000600980549050145b1561226d5760009050612283565b600d54600c544361227e9190613b5c565b101590505b90565b600073ffffffffffffffffffffffffffffffffffffffff168373ffffffffffffffffffffffffffffffffffffffff1614156122f6576040517f08c379a00000000000000000000000000000000000000000000000000000000081526004016122ed90614854565b60405180910390fd5b600073ffffffffffffffffffffffffffffffffffffffff168273ffffffffffffffffffffffffffffffffffffffff161415612366576040517f08c379a000000000000000000000000000000000000000000000000000000000815260040161235d906148e6565b60405180910390fd5b612371838383612c17565b60008060008573ffffffffffffffffffffffffffffffffffffffff1673ffffffffffffffffffffffffffffffffffffffff168152602001908152602001600020549050818110156123f7576040517f08c379a00000000000000000000000000000000000000000000000000000000081526004016123ee90614978565b60405180910390fd5b8181036000808673ffffffffffffffffffffffffffffffffffffffff1673ffffffffffffffffffffffffffffffffffffffff16815260200190815260200160002081905550816000808573ffffffffffffffffffffffffffffffffffffffff1673ffffffffffffffffffffffffffffffffffffffff168152602001908152602001600020600082825461248a9190613cc3565b925050819055508273ffffffffffffffffffffffffffffffffffffffff168473ffffffffffffffffffffffffffffffffffffffff167fddf252ad1be2c89b69c2b068fc378daa952ba7f163c4a11628f55a4df523b3ef846040516124ee9190613595565b60405180910390a3612501848484612e49565b50505050565b600073ffffffffffffffffffffffffffffffffffffffff168273ffffffffffffffffffffffffffffffffffffffff161415612577576040517f08c379a000000000000000000000000000000000000000000000000000000000815260040161256e906149e4565b60405180910390fd5b61258360008383612c17565b80600260008282546125959190613cc3565b92505081905550806000808473ffffffffffffffffffffffffffffffffffffffff1673ffffffffffffffffffffffffffffffffffffffff16815260200190815260200160002060008282546125ea9190613cc3565b925050819055508173ffffffffffffffffffffffffffffffffffffffff16600073ffffffffffffffffffffffffffffffffffffffff167fddf252ad1be2c89b69c2b068fc378daa952ba7f163c4a11628f55a4df523b3ef8360405161264f9190613595565b60405180910390a361266360008383612e49565b5050565b600073ffffffffffffffffffffffffffffffffffffffff168273ffffffffffffffffffffffffffffffffffffffff1614156126d7576040517f08c379a00000000000000000000000000000000000000000000000000000000081526004016126ce90614a76565b60405180910390fd5b6126e382600083612c17565b60008060008473ffffffffffffffffffffffffffffffffffffffff1673ffffffffffffffffffffffffffffffffffffffff16815260200190815260200160002054905081811015612769576040517f08c379a000000000000000000000000000000000000000000000000000000000815260040161276090614b08565b60405180910390fd5b8181036000808573ffffffffffffffffffffffffffffffffffffffff1673ffffffffffffffffffffffffffffffffffffffff1681526020019081526020016000208190555081600260008282546127c09190613b5c565b92505081905550600073ffffffffffffffffffffffffffffffffffffffff168373ffffffffffffffffffffffffffffffffffffffff167fddf252ad1be2c89b69c2b068fc378daa952ba7f163c4a11628f55a4df523b3ef846040516128259190613595565b60405180910390a361283983600084612e49565b505050565b6000600560009054906101000a900473ffffffffffffffffffffffffffffffffffffffff16905081600560006101000a81548173ffffffffffffffffffffffffffffffffffffffff021916908373ffffffffffffffffffffffffffffffffffffffff1602179055508173ffffffffffffffffffffffffffffffffffffffff168173ffffffffffffffffffffffffffffffffffffffff167f8be0079c531659141344cd1fd0a4f28419497f9722a3daafe3b4186f6b6457e060405160405180910390a35050565b600e60009054906101000a900460ff1615612954576040517f08c379a000000000000000000000000000000000000000000000000000000000815260040161294b90614b9a565b60405180910390fd5b6001600e60006101000a81548160ff0219169083151502179055506000600880549050111561298c576008600061298b9190613134565b5b60003073ffffffffffffffffffffffffffffffffffffffff166318160ddd6040518163ffffffff1660e01b8152600401602060405180830381865afa1580156129d9573d6000803e3d6000fd5b505050506040513d601f19601f820116820180604052508101906129fd9190613a9a565b905060005b600780549050811015612b1957600060078281548110612a2557612a24613afe565b5b9060005260206000200160009054906101000a900473ffffffffffffffffffffffffffffffffffffffff1673ffffffffffffffffffffffffffffffffffffffff166370a08231306040518263ffffffff1660e01b8152600401612a8891906136b6565b602060405180830381865afa158015612aa5573d6000803e3d6000fd5b505050506040513d601f19601f82011682018060405250810190612ac99190613a9a565b905060008382612ad99190614be9565b9050600881908060018154018082558091505060019003906000526020600020016000909190919091505550508080612b1190613bbf565b915050612a02565b506000600f819055507fcaec521e84e0f554a179e69c042f43833410c17af29a4385f244c61e24d3759a60405160405180910390a150565b6000818310612b605781612b62565b825b905092915050565b600e60009054906101000a900460ff16612bb9576040517f08c379a0000000000000000000000000000000000000000000000000000000008152600401612bb090614c8c565b60405180910390fd5b60086000612bc79190613134565b6000600e60006101000a81548160ff02191690831515021790555043600c819055507f1138de6b323edc96da0f54562e39d324138cea036bc9044562f386a7f602b5e160405160405180910390a1565b600e60009054906101000a900460ff1615612c67576040517f08c379a0000000000000000000000000000000000000000000000000000000008152600401612c5e90614cf8565b60405180910390fd5b600073ffffffffffffffffffffffffffffffffffffffff168273ffffffffffffffffffffffffffffffffffffffff1614612ce457612ca48261201a565b612ce3576040517f08c379a0000000000000000000000000000000000000000000000000000000008152600401612cda90614d8a565b60405180910390fd5b5b600073ffffffffffffffffffffffffffffffffffffffff168373ffffffffffffffffffffffffffffffffffffffff161480612d4b5750600073ffffffffffffffffffffffffffffffffffffffff168273ffffffffffffffffffffffffffffffffffffffff16145b15612d5957612d58613060565b5b6000803073ffffffffffffffffffffffffffffffffffffffff166370a08231856040518263ffffffff1660e01b8152600401612d9591906136b6565b602060405180830381865afa158015612db2573d6000803e3d6000fd5b505050506040513d601f19601f82011682018060405250810190612dd69190613a9a565b1415905080612e43576009839080600181540180825580915050600190039060005260206000200160009091909190916101000a81548173ffffffffffffffffffffffffffffffffffffffff021916908373ffffffffffffffffffffffffffffffffffffffff1602179055505b50505050565b6000803073ffffffffffffffffffffffffffffffffffffffff166370a08231866040518263ffffffff1660e01b8152600401612e8591906136b6565b602060405180830381865afa158015612ea2573d6000803e3d6000fd5b505050506040513d601f19601f82011682018060405250810190612ec69190613a9a565b141590508061305a5760005b600980549050811015613058578473ffffffffffffffffffffffffffffffffffffffff1660098281548110612f0a57612f09613afe565b5b9060005260206000200160009054906101000a900473ffffffffffffffffffffffffffffffffffffffff1673ffffffffffffffffffffffffffffffffffffffff1614156130455760096001600980549050612f659190613b5c565b81548110612f7657612f75613afe565b5b9060005260206000200160009054906101000a900473ffffffffffffffffffffffffffffffffffffffff1660098281548110612fb557612fb4613afe565b5b9060005260206000200160006101000a81548173ffffffffffffffffffffffffffffffffffffffff021916908373ffffffffffffffffffffffffffffffffffffffff160217905550600980548061300f5761300e613b90565b5b6001900381819060005260206000200160006101000a81549073ffffffffffffffffffffffffffffffffffffffff021916905590555b808061305090613bbf565b915050612ed2565b505b50505050565b613068612243565b156130a8576040517f08c379a000000000000000000000000000000000000000000000000000000000815260040161309f90614e1c565b60405180910390fd5b565b828054828255906000526020600020908101928215613123579160200282015b828111156131225782518260006101000a81548173ffffffffffffffffffffffffffffffffffffffff021916908373ffffffffffffffffffffffffffffffffffffffff160217905550916020019190600101906130ca565b5b5090506131309190613155565b5090565b50805460008255906000526020600020908101906131529190613155565b50565b5b8082111561316e576000816000905550600101613156565b5090565b600081519050919050565b600082825260208201905092915050565b60005b838110156131ac578082015181840152602081019050613191565b838111156131bb576000848401525b50505050565b6000601f19601f8301169050919050565b60006131dd82613172565b6131e7818561317d565b93506131f781856020860161318e565b613200816131c1565b840191505092915050565b6000602082019050818103600083015261322581846131d2565b905092915050565b6000604051905090565b600080fd5b600080fd5b600073ffffffffffffffffffffffffffffffffffffffff82169050919050565b600061326c82613241565b9050919050565b61327c81613261565b811461328757600080fd5b50565b60008135905061329981613273565b92915050565b6000819050919050565b6132b28161329f565b81146132bd57600080fd5b50565b6000813590506132cf816132a9565b92915050565b600080604083850312156132ec576132eb613237565b5b60006132fa8582860161328a565b925050602061330b858286016132c0565b9150509250929050565b60008115159050919050565b61332a81613315565b82525050565b60006020820190506133456000830184613321565b92915050565b60006020828403121561336157613360613237565b5b600061336f8482850161328a565b91505092915050565b600080fd5b600080fd5b7f4e487b7100000000000000000000000000000000000000000000000000000000600052604160045260246000fd5b6133ba826131c1565b810181811067ffffffffffffffff821117156133d9576133d8613382565b5b80604052505050565b60006133ec61322d565b90506133f882826133b1565b919050565b600067ffffffffffffffff82111561341857613417613382565b5b613421826131c1565b9050602081019050919050565b82818337600083830152505050565b600061345061344b846133fd565b6133e2565b90508281526020810184848401111561346c5761346b61337d565b5b61347784828561342e565b509392505050565b600082601f83011261349457613493613378565b5b81356134a484826020860161343d565b91505092915050565b600080600080608085870312156134c7576134c6613237565b5b60006134d58782880161328a565b94505060206134e68782880161328a565b93505060406134f7878288016132c0565b925050606085013567ffffffffffffffff8111156135185761351761323c565b5b6135248782880161347f565b91505092959194509250565b60007fffffffff0000000000000000000000000000000000000000000000000000000082169050919050565b61356581613530565b82525050565b6000602082019050613580600083018461355c565b92915050565b61358f8161329f565b82525050565b60006020820190506135aa6000830184613586565b92915050565b6000602082840312156135c6576135c5613237565b5b60006135d4848285016132c0565b91505092915050565b6000806000606084860312156135f6576135f5613237565b5b60006136048682870161328a565b93505060206136158682870161328a565b9250506040613626868287016132c0565b9150509250925092565b600060ff82169050919050565b61364681613630565b82525050565b6000602082019050613661600083018461363d565b92915050565b6000806040838503121561367e5761367d613237565b5b600061368c8582860161328a565b925050602061369d8582860161328a565b9150509250929050565b6136b081613261565b82525050565b60006020820190506136cb60008301846136a7565b92915050565b600067ffffffffffffffff8211156136ec576136eb613382565b5b602082029050602081019050919050565b600080fd5b6000613715613710846136d1565b6133e2565b90508083825260208201905060208402830185811115613738576137376136fd565b5b835b81811015613761578061374d888261328a565b84526020840193505060208101905061373a565b5050509392505050565b600082601f8301126137805761377f613378565b5b8135613790848260208601613702565b91505092915050565b6000602082840312156137af576137ae613237565b5b600082013567ffffffffffffffff8111156137cd576137cc61323c565b5b6137d98482850161376b565b91505092915050565b7f4e487b7100000000000000000000000000000000000000000000000000000000600052602260045260246000fd5b6000600282049050600182168061382957607f821691505b6020821081141561383d5761383c6137e2565b5b50919050565b7f4f776e61626c653a2063616c6c6572206973206e6f7420746865206f776e6572600082015250565b600061387960208361317d565b915061388482613843565b602082019050919050565b600060208201905081810360008301526138a88161386c565b9050919050565b7f686f6c646572206e6f7420617070726f76656400000000000000000000000000600082015250565b60006138e560138361317d565b91506138f0826138af565b602082019050919050565b60006020820190508181036000830152613914816138d8565b9050919050565b7f686f6c64657220616c726561647920617070726f766564000000000000000000600082015250565b600061395160178361317d565b915061395c8261391b565b602082019050919050565b6000602082019050818103600083015261398081613944565b9050919050565b7f45524332303a207472616e7366657220616d6f756e742065786365656473206160008201527f6c6c6f77616e6365000000000000000000000000000000000000000000000000602082015250565b60006139e360288361317d565b91506139ee82613987565b604082019050919050565b60006020820190508181036000830152613a12816139d6565b9050919050565b7f5265656e7472616e637947756172643a207265656e7472616e742063616c6c00600082015250565b6000613a4f601f8361317d565b9150613a5a82613a19565b602082019050919050565b60006020820190508181036000830152613a7e81613a42565b9050919050565b600081519050613a94816132a9565b92915050565b600060208284031215613ab057613aaf613237565b5b6000613abe84828501613a85565b91505092915050565b6000606082019050613adc60008301866136a7565b613ae960208301856136a7565b613af66040830184613586565b949350505050565b7f4e487b7100000000000000000000000000000000000000000000000000000000600052603260045260246000fd5b7f4e487b7100000000000000000000000000000000000000000000000000000000600052601160045260246000fd5b6000613b678261329f565b9150613b728361329f565b925082821015613b8557613b84613b2d565b5b828203905092915050565b7f4e487b7100000000000000000000000000000000000000000000000000000000600052603160045260246000fd5b6000613bca8261329f565b91507fffffffffffffffffffffffffffffffffffffffffffffffffffffffffffffffff821415613bfd57613bfc613b2d565b5b600182019050919050565b7f756e61626c6520746f2066696e642072656c6561736564204e465420696e204d60008201527f616e616765644e46547300000000000000000000000000000000000000000000602082015250565b6000613c64602a8361317d565b9150613c6f82613c08565b604082019050919050565b60006020820190508181036000830152613c9381613c57565b9050919050565b6000604082019050613caf60008301856136a7565b613cbc60208301846136a7565b9392505050565b6000613cce8261329f565b9150613cd98361329f565b9250827fffffffffffffffffffffffffffffffffffffffffffffffffffffffffffffffff03821115613d0e57613d0d613b2d565b5b828201905092915050565b7f45524332303a206275726e20616d6f756e74206578636565647320616c6c6f7760008201527f616e636500000000000000000000000000000000000000000000000000000000602082015250565b6000613d7560248361317d565b9150613d8082613d19565b604082019050919050565b60006020820190508181036000830152613da481613d68565b9050919050565b7f6d7573742070726f63657373206174206c65617374203120646973747269627560008201527f74696f6e00000000000000000000000000000000000000000000000000000000602082015250565b6000613e0760248361317d565b9150613e1282613dab565b604082019050919050565b60006020820190508181036000830152613e3681613dfa565b9050919050565b7f4d696e446973747269627574696f6e506572696f64206e6f74206d6574000000600082015250565b6000613e73601d8361317d565b9150613e7e82613e3d565b602082019050919050565b60006020820190508181036000830152613ea281613e66565b9050919050565b6000613eb48261329f565b9150613ebf8361329f565b9250817fffffffffffffffffffffffffffffffffffffffffffffffffffffffffffffffff0483118215151615613ef857613ef7613b2d565b5b828202905092915050565b6000604082019050613f1860008301856136a7565b613f256020830184613586565b9392505050565b613f3581613315565b8114613f4057600080fd5b50565b600081519050613f5281613f2c565b92915050565b600060208284031215613f6e57613f6d613237565b5b6000613f7c84828501613f43565b91505092915050565b600081549050919050565b600082825260208201905092915050565b60008190508160005260206000209050919050565b613fbf81613261565b82525050565b6000613fd18383613fb6565b60208301905092915050565b60008160001c9050919050565b600073ffffffffffffffffffffffffffffffffffffffff82169050919050565b600061401d61401883613fdd565b613fea565b9050919050565b6000614030825461400a565b9050919050565b6000600182019050919050565b600061404f82613f85565b6140598185613f90565b935061406483613fa1565b8060005b8381101561409c5761407982614024565b6140838882613fc5565b975061408e83614037565b925050600181019050614068565b5085935050505092915050565b600081519050919050565b600082825260208201905092915050565b6000819050602082019050919050565b6140de8161329f565b82525050565b60006140f083836140d5565b60208301905092915050565b6000602082019050919050565b6000614114826140a9565b61411e81856140b4565b9350614129836140c5565b8060005b8381101561415a57815161414188826140e4565b975061414c836140fc565b92505060018101905061412d565b5085935050505092915050565b600060608201905061417c60008301866136a7565b818103602083015261418e8185614044565b905081810360408301526141a28184614109565b9050949350505050565b6000815190506141bb81613273565b92915050565b6000602082840312156141d7576141d6613237565b5b60006141e5848285016141ac565b91505092915050565b7f7468697320636f6e747261637420646f6573206e6f74206f776e20746865206e60008201527f6577204d616e616765644e465400000000000000000000000000000000000000602082015250565b600061424a602d8361317d565b9150614255826141ee565b604082019050919050565b600060208201905081810360008301526142798161423d565b9050919050565b7f63616e6e6f7420776974686472617720647572696e672064697374726962757460008201527f696f6e0000000000000000000000000000000000000000000000000000000000602082015250565b60006142dc60238361317d565b91506142e782614280565b604082019050919050565b6000602082019050818103600083015261430b816142cf565b9050919050565b6000614325614320846136d1565b6133e2565b90508083825260208201905060208402830185811115614348576143476136fd565b5b835b81811015614371578061435d88826141ac565b84526020840193505060208101905061434a565b5050509392505050565b600082601f8301126143905761438f613378565b5b81516143a0848260208601614312565b91505092915050565b600067ffffffffffffffff8211156143c4576143c3613382565b5b602082029050602081019050919050565b60006143e86143e3846143a9565b6133e2565b9050808382526020820190506020840283018581111561440b5761440a6136fd565b5b835b8181101561443457806144208882613a85565b84526020840193505060208101905061440d565b5050509392505050565b600082601f83011261445357614452613378565b5b81516144638482602086016143d5565b91505092915050565b6000806040838503121561448357614482613237565b5b600083015167ffffffffffffffff8111156144a1576144a061323c565b5b6144ad8582860161437b565b925050602083015167ffffffffffffffff8111156144ce576144cd61323c565b5b6144da8582860161443e565b9150509250929050565b600081519050919050565b6000819050602082019050919050565b6000602082019050919050565b6000614517826144e4565b6145218185613f90565b935061452c836144ef565b8060005b8381101561455d5781516145448882613fc5565b975061454f836144ff565b925050600181019050614530565b5085935050505092915050565b60006040820190508181036000830152614584818561450c565b905061459360208301846136a7565b9392505050565b7f45524332303a2064656372656173656420616c6c6f77616e63652062656c6f7760008201527f207a65726f000000000000000000000000000000000000000000000000000000602082015250565b60006145f660258361317d565b91506146018261459a565b604082019050919050565b60006020820190508181036000830152614625816145e9565b9050919050565b7f4f776e61626c653a206e6577206f776e657220697320746865207a65726f206160008201527f6464726573730000000000000000000000000000000000000000000000000000602082015250565b600061468860268361317d565b91506146938261462c565b604082019050919050565b600060208201905081810360008301526146b78161467b565b9050919050565b7f45524332303a20617070726f76652066726f6d20746865207a65726f2061646460008201527f7265737300000000000000000000000000000000000000000000000000000000602082015250565b600061471a60248361317d565b9150614725826146be565b604082019050919050565b600060208201905081810360008301526147498161470d565b9050919050565b7f45524332303a20617070726f766520746f20746865207a65726f20616464726560008201527f7373000000000000000000000000000000000000000000000000000000000000602082015250565b60006147ac60228361317d565b91506147b782614750565b604082019050919050565b600060208201905081810360008301526147db8161479f565b9050919050565b7f45524332303a207472616e736665722066726f6d20746865207a65726f20616460008201527f6472657373000000000000000000000000000000000000000000000000000000602082015250565b600061483e60258361317d565b9150614849826147e2565b604082019050919050565b6000602082019050818103600083015261486d81614831565b9050919050565b7f45524332303a207472616e7366657220746f20746865207a65726f206164647260008201527f6573730000000000000000000000000000000000000000000000000000000000602082015250565b60006148d060238361317d565b91506148db82614874565b604082019050919050565b600060208201905081810360008301526148ff816148c3565b9050919050565b7f45524332303a207472616e7366657220616d6f756e742065786365656473206260008201527f616c616e63650000000000000000000000000000000000000000000000000000602082015250565b600061496260268361317d565b915061496d82614906565b604082019050919050565b6000602082019050818103600083015261499181614955565b9050919050565b7f45524332303a206d696e7420746f20746865207a65726f206164647265737300600082015250565b60006149ce601f8361317d565b91506149d982614998565b602082019050919050565b600060208201905081810360008301526149fd816149c1565b9050919050565b7f45524332303a206275726e2066726f6d20746865207a65726f2061646472657360008201527f7300000000000000000000000000000000000000000000000000000000000000602082015250565b6000614a6060218361317d565b9150614a6b82614a04565b604082019050919050565b60006020820190508181036000830152614a8f81614a53565b9050919050565b7f45524332303a206275726e20616d6f756e7420657863656564732062616c616e60008201527f6365000000000000000000000000000000000000000000000000000000000000602082015250565b6000614af260228361317d565b9150614afd82614a96565b604082019050919050565b60006020820190508181036000830152614b2181614ae5565b9050919050565b7f63616e6e6f7420626567696e20646973747269627574696f6e207768656e206160008201527f6c7265616479206c6f636b656400000000000000000000000000000000000000602082015250565b6000614b84602d8361317d565b9150614b8f82614b28565b604082019050919050565b60006020820190508181036000830152614bb381614b77565b9050919050565b7f4e487b7100000000000000000000000000000000000000000000000000000000600052601260045260246000fd5b6000614bf48261329f565b9150614bff8361329f565b925082614c0f57614c0e614bba565b5b828204905092915050565b7f63616e6e6f7420656e6420646973747269627574696f6e207768656e206e6f7460008201527f206c6f636b656400000000000000000000000000000000000000000000000000602082015250565b6000614c7660278361317d565b9150614c8182614c1a565b604082019050919050565b60006020820190508181036000830152614ca581614c69565b9050919050565b7f646973747269627574696f6e20696e2070726f67726573730000000000000000600082015250565b6000614ce260188361317d565b9150614ced82614cac565b602082019050919050565b60006020820190508181036000830152614d1181614cd5565b9050919050565b7f7265636569766572206e6f7420617070726f76656420746f20686f6c6420746860008201527f6520746f6b656e00000000000000000000000000000000000000000000000000602082015250565b6000614d7460278361317d565b9150614d7f82614d18565b604082019050919050565b60006020820190508181036000830152614da381614d67565b9050919050565b7f6d7573742064697374726962757465206265666f7265206d696e74696e67206f60008201527f72206275726e696e670000000000000000000000000000000000000000000000602082015250565b6000614e0660298361317d565b9150614e1182614daa565b604082019050919050565b60006020820190508181036000830152614e3581614df9565b905091905056fea26469706673582212209ba553e4c1decd7932b08f3035722cdea65dd9074c0d985b4763f6ec8018816164736f6c634300080c0033",
  "linkReferences": {},
  "deployedLinkReferences": {}
}